:10000E0002222A2A2B2B2AFAFE2E2B2B2A2A2202F6
:10001E00202060C0FF7F494949497FFFC0602020F2
:10002E000000007F7F4C4F4343474C487F7F0000CA
:10003E001F1F0EFCF00C3CF0F0380C04F8FE07010C
:10004E0000017D7D555555557D7DCCEF331908004A
:10005E00404040FEFF434248585040FFFF80C040A2
:10006E000808484B6B7A5ACACA5A7A6B4B4808082A
:10007E00060E08E7E7A1A1ADBDB1A1EFEE0C0E0291
:10008E000000000000000000000000000000000062
:10009E0000000000000000000000001C1E1A0000FE
:1000AE0004040404040404FFFF040404040404040C
:1000BE00010103060C38F0C0C0F0380C0603010134
:1000CE00007879494F4F49494F4F49497F7F00008A
:1000DE002222323EECEC3834E6FF3F20F8FE0701D8
:1000EE00303A2A2222222262EEAF232222323A080C
:1000FE00000003070E0AC2F23A8FE772180C0602CE
:10010E00007F7F40484C4E4B7B7E4C46427F7F00AB
:10011E0000FFFF4242C296B6AEAACA4242FFFF009D
:10012E0000000000000000000000000000000000C1
:10013E0000000000000000000000001C1E1A00005D
:10014E0000000000000003FFFF030000000000009D
:10015E000103060C38F0C00000C0F0380C06030195
:10016E000010101113161CFFFF1C16131110100097
:10017E004047CF8800060EE8E60E08008CCE4341BD
:10018E00000F0F0CFFFF031F1F0504FFFF040404E5
:10019E001EDEE262FAFA02FEFC1010F0F80C0C08F9
:1001AE0000007F7F49494949494949494941000071
:1001BE0001010362761C18F0F0180C66721301012F
:1001CE000000000000000000000000000000000021
:1001DE0000000000000000000000001C1E1A0000BD
:1001EE00101017D7F0331310171774F49717101049
:1001FE000000FEFF03F2F000FEFF9392FFFF0000EF
:10020E00007C7C444444447C7C44C4FF7F252424ED
:10021E0082929292FEFE92929262E0FFFFE0701046
:10022E002020202323222222223F3F202020202074
:10023E00000000FCFE0303020080E0781C060301B0
:10024E0000007F7F4949497F7F4949497F7F0000F0
:10025E0002022222222222FEFE2222222222020238
:10026E000000000000000000000000000000000080
:10027E0000000000000000000000001C1E1A00001C
:10028E0000003F3F020202FFFF0202023E3E00005C
:10029E00003F3F02020202FEFE020202023E3E004A
:1002AE00000808496B2E0CFFFF0C2E6B4908080046
:1002BE002121A3A2262C387070382C26A2A3A121AE
:1002CE00080969E989F9FF0F080A0BFFFF080808FA
:1002DE0001C3F63C3CF6C3F1FD0E02FEFFC34240E5
:1002EE0020242424F7F7242C3C34F7F7242424204C
:1002FE00101050D09090D07F7FD09090D050101092
:10030E0000000000000000000000000000000000DF
:10031E0000000000000000000000001C1E1A00007B
:10032E0000003F21A4683F007F447F007F447F0090
:10033E00007E414A4848C800FF41FC02FD44F806D1
:10034E00007C7C444444447C7C44C4FF7F252424AC
:10035E0082929292FEFE92929262E0FFFFE0701005
:10036E002020202323222222223F3F202020202033
:10037E00000000FCFE0303020080E0781C0603016F
:10038E0000007F7F4949497F7F4949497F7F0000AF
:10039E0002022222222222FEFE22222222220202F7
:1003AE00000000000000000000000000000000003F
:1003BE0000000000000000000000001C1E1A0000DB
:1003CE0002222A2A2B2B2A2AFAFE2F2B2A2A220233
:1003DE0000404040FEFF43424C5CD0E070180C04DD
:1003EE000010111111111111111111F9FF07000057
:1003FE000000FCFE0313121010101010101010103D
:10040E00020242424242427F7F4242424242020244
:10041E00010103060C38F0C0C0F0380C06030101D0
:10042E0000202121333A2E64E4AE3A3321212000FC
:10043E0080808000FFFF00000000F8FE07818080B2
:10044E00000000000000000000000000000000009E
:10045E0000000000000000000000001C1E1A00003A
:10046E0005657C5C5557D7F534040CCEF73D0C046E
:10047E0008B8F0FEFFDB6EB6929248484CE6E644B2
:10048E0030382A2222222263E3A222222232380884
:10049E0002022222222222FEFE02067C7C0603019A
:1004AE000020212121212121212121212121200072
:1004BE0004040404040404040404040404040404EE
:1004CE0000080808080808FFFF0808787C0E0301DA
:1004DE0002024242424242FEFE4242424242020276
:1004EE0000000000000000000000000000000000FE
:1004FE00000000000000000000183C243C18000022
:100A8B00010A0520200B01016171190D05FFFF0102
:100A9B007D7C4447474002060C1870E486FFFF003C
:090AAB007C7E43C3C20001080176
:100AB500D3EF9400EE940040147D767C00ED1D701C
:0D0AC500011CED4C70F7EF1F70E61E80E382
:010AD2002201
:0207B300A90794
:1007B500E4FFC2A7EFB4080050539007C6F82828F5
:1007C500730207DE0207E50207EC0207F30207FAE8
:1007D50002080002080702080EEDA2E392A5802D8B
:1007E500EDA2E192A58026EDA2E692A5801FEDA2DD
:1007F500E492A58018ED1392A58012EDA2E292A5D0
:10080500800BEDA2E592A58004ED3392A5D2A70F4A
:10081500BF089FE4FFC2A7EFB40800505390082912
:10082500F828287302084102084802084F020856B2
:1008350002085D02086302086A020871E9A2E392F0
:10084500A5802DE9A2E192A58026E9A2E692A580E0
:100855001FE9A2E492A58018E91392A58012E9A2E6
:10086500E292A5800BE9A2E592A58004E93392A561
:0A087500D2A70FBF089FC2A6D2A6AB
:01087F002256
:10098300EFB40800503D900990F82828730209C479
:100993000209C00209BC0209B80209B40209B00283
:1009A30009AC0209A87E05801A7E0280167E0180AA
:1009B300127E07800EE4FE800A7E0680067E048097
:1009C300027E03EE1392A0EEA2E192A1A2E292A212
:0809D300ED6003C2A322D2A3D0
:0109DB0022F9
:06090C008B318A328933B1
:10091200E4F534E4FDFF1207B3AF34120983AB31BF
:10092200AA32A933853482758300120A5EFFE53448
:100932007C0029F9EC3AFA900008120A5EFD1207CF
:10094200B30534E534C3940840C9E4F534E4FDFF4B
:100952001207B30DAF34120983AB317E00E53325A4
:1009620034F9EE3532FA900010120A5EFF90001848
:10097200120A5EFD1207B30534E534C3940840CD74
:010982002252
:100AD300758901758AB0758C3CD28CD2A9D2AF22AC
:1009DC00E508602E30930930940630B20320B32220
:1009EC007F0A7E00120AB5E4F5082093037F0122EA
:1009FC002094037F022220B2037F032220B3127FB4
:100A0C00042230930C30940930B20630B3037508CD
:030A1C00017F0057
:010A1F0022B4
:10050E00E4F52EF52F120AD31209DCBF0121D28C8D
:10051E00E52F600FE4F52F052EE52EC39402400360
:10052E00E4F52E052EE52EC394024003E4F52EBF0E
:10053E000205C28C752F01BF0402050ABF0306D542
:10054E000A03750A01E52E6401600302067AF5308E
:10055E00C37410952DFFE530C39F5037AF2DE53096
:10056E002FFDE433FCE52CAE2B7805C333CE33CE12
:10057E00D8F9240EF58274003EF583E5822DF582BE
:10058E00E5833CF583E493FF740B2530F8A607054D
:10059E003080BDE4F530E530C3952D5037E52CAEF7
:1005AE002B7805C333CE33CED8F9242EF5827400C2
:1005BE003EF583E5822530F582E43583F583E493B9
:1005CE00FFAE2DEEFDE530C39DFD741B2DF8A60785
:1005DE00053080C2753010C37420952DFFE530C3F1
:1005EE009F5037AF2DE5302FFDE433FCE52CAE2BBD
:1005FE007805C333CE33CED8F9240EF58274003E7F
:10060E00F583E5822DF582E5833CF583E493FF7453
:10061E000B2530F8A607053080BD753010AF2DEFD5
:10062E002410FFE433FEAD307C00C3ED9FEE6480FA
:10063E00F87480985036E52CAE2B7805C333CE3344
:10064E00CED8F9242EF58274003EF583E58225304E
:10065E00F582E43583F583E493FFAE2DEEFBC3ED17
:10066E009BFD741B2DF8A607053080B1E52E6003A7
:10067E000207A7F530C37410952DFFE530C39F50C8
:10068E0031E52CAE2B7805C333CE33CED8F9240EFC
:10069E00F58274003EF583E5822530F582E43583DC
:1006AE00F583E493FFE530252D240BF8A6070530DE
:1006BE0080C3E4F530E530C3952D5042AF2DC374A1
:1006CE00109FFFE49400FE7C00EF2530FDEC3EFC15
:1006DE00E52CAE2B7805C333CE33CED8F9242EF5C8
:1006EE008274003EF583E5822DF582E5833CF58329
:1006FE00E493FF740B2530F8A607053080B77530EC
:10070E0010C37420952DFFE530C39F5031E52CAEFC
:10071E002B7805C333CE33CED8F9240EF582740070
:10072E003EF583E5822530F582E43583F583E49347
:10073E00FFE530252D240BF8A607053080C3753054
:10074E0010AF2DEF2410FFE433FEC3E5309FEE64AF
:10075E0080F87480985042AF2DC374109FFFE494BC
:10076E0000FE7C00EF2530FDEC3EFCE52CAE2B7838
:10077E0005C333CE33CED8F9242EF58274003EF560
:10078E0083E5822DF582E5833CF583E493FF740BBC
:10079E002530F8A607053080A87B007A00790B1269
:0507AE00090C02051614
:03000B00020A20C6
:040A2000C0E0C0D0A2
:100A2400758AB0758C3C0509E509C3950A4026759D
:100A34000900052DE52D9410401B752D00052CE5AE
:100A44002C7002052BE52C9427E52B9400400675A9
:050A54002B00752C00D1
:050A5900D0D0D0E03216
:0300000002088073
:0C088000787FE4F6D8FD7581340208C7CB
:100A5E00BB010CE58229F582E5833AF583E022504D
:100A6E0006E92582F8E622BBFE06E92582F8E22297
:0D0A7E00E58229F582E5833AF583E49322B1
:10088C0002050EE493A3F8E493A34003F68001F26F
:10089C0008DFF48029E493A3F85407240CC8C3336D
:1008AC00C4540F4420C8834004F456800146F6DF3C
:1008BC00E4800B0102040810204080900A8BE47E37
:1008CC00019360BCA3FF543F30E509541FFEE49331
:1008DC00A360010ECF54C025E060A840B8E493A3F8
:1008EC00FAE493A3F8E493A3C8C582C8CAC583CA23
:1008FC00F0A3C8C582C8CAC583CADFE9DEE780BEDB
:010AB4000041
:00000001FF
