:0300000002095C96
:0C095C00787FE4F6D8FD7581790209A3CC
:100B4700C0F9A4B0999282F880908883C6A1868E56
:080B570089C7C8C100034A1858
:0C0B7A00014E000127000125000150FF82
:0C0B6D00C2AFE4FF0FBF1DFC0000D2AFC0
:010B79002259
:0D0B5F00EFD3940040077E7DDEFE1F80F383
:010B6C002266
:100B03008F21C2B3120B6DA20892B3120B6DA2090F
:100B130092B3120B6DA20A92B3120B6DA20B92B396
:100B2300120B6DA20C92B3120B6DA20D92B3120BAA
:100B33006DA20E92B3120B6DA20F92B3120B6DD274
:040B4300B3020B6D81
:0409E800AD07AC06A5
:1009EC007B0AECC4540FF512EC540FF9ECC4F85418
:1009FC00F0C8EDC4540F48540FFFED540FFEE51230
:100A0C00900B4793F580C2A0AD031BED70FAD2A0FA
:100A1C007B0AE9900B4793547FF580C2A1AD031B71
:100A2C00ED70FAD2A17B0AEF900B4793F580C2A22E
:100A3C00AF031BEF70FAD2A27B0AEE900B4793F533
:0B0A4C0080C2A3AF031BEF70FAD2A31F
:010A5700227C
:10080000E4F510F511D2A8C288758920758DFD75A3
:100810008BFDD28ED29CC29FD29ED2AFD2ACE54D80
:10082000B40109C2ACE4F54DC299D2AC1550E55003
:10083000D3940A500302092CE4F510F511745625DF
:1008400011F8E6FF120B030511E51170020510C344
:100850009424E5106480948040E3E4F510F511AF32
:100860001174562FF8E6F4600302091974572FF833
:10087000E6F4600302091974582FF8E6F4600302E5
:10088000091974592FF8E6F46003020919745A2FF4
:10089000F8E6F46003020919745C2FF8E6FE745B55
:1008A0002FF8E66EFFAE11745D2EF8E66FFF745EF2
:1008B0002EF8E66FFF745F2EF8E66FFF74602EF877
:1008C000E66FF522AF1174612FF8E66522704A7465
:1008D0005B2FF8E6F526745C2FF8E6F528745D2F9B
:1008E000F8E6FE900B5BE4936E702B745E2FF8E6D7
:1008F000FFA3E493B5071FAF11745F2FF8E6FEA3C3
:10090000E493B5061174602FF8E6FFA3E493B507EE
:100910000575250180207525020511E51170020578
:100920001064194510600302085F800A0550E4F561
:10093000257F01120B03E52514600A14600B2402C5
:100940007011E4800674D0800274EEFFFE1209E894
:0C09500002081EE4FFFE1209E802081E67
:03002300020AB11D
:0F0AB100C0E0C0D075D000C000C005C006C007AF
:100AC000C298AF4E054E74292FF8A699E54EC394EF
:100AD00024401DE4FFFE74292FF8E6FD74562FF81C
:100AE000A6050FBF00010EEF64244E70E9754E009D
:060AF000754D017550FF79
:0D0AF600D007D006D005D000D0D0D0E0321F
:03000300020A5896
:100A5800C0E0C0D075D00875270100000000000074
:100A6800000000000000000000120B6DA2B292000E
:100A7800120B6DA2B29201120B6DA2B29202120B6E
:100A88006DA2B29203120B6DA2B29204120B6DA268
:100A9800B29205120B6DA2B29206120B6DA2B2921F
:090AA80007120B6DD0D0D0E03232
:10096800020800E493A3F8E493A34003F68001F29D
:1009780008DFF48029E493A3F85407240CC8C33390
:10098800C4540F4420C8834004F456800146F6DF5F
:10099800E4800B0102040810204080900B7AE47E6A
:1009A800019360BCA3FF543F30E509541FFEE49354
:1009B800A360010ECF54C025E060A840B8E493A31B
:1009C800FAE493A3F8E493A3C8C582C8CAC583CA46
:1009D800F0A3C8C582C8CAC583CADFE9DEE780BEFE
:010B8600006E
:00000001FF
