:020000040800F2
:100000004810002001010008F31A0008F518000844
:10001000F11A0008C3010008753400080000000050
:10002000000000000000000000000000AD200008FB
:10003000D101000800000000F31E0008AF200008F6
:100040001B0100081B0100081B0100081B01000820
:100050001B0100081B0100081B010008D501000856
:100060001B0100081B0100081B0100081B01000800
:100070001B0100081B0100081B0100081B010008F0
:100080001B0100081B0100081B0100081B010008E0
:100090000D3400081B0100081B0100081B010008AB
:1000A0001B0100081B0100081B0100081B010008C0
:1000B0001B0100081B0100081B0100081B010008B0
:1000C0001B0100081B0100081B0100081B010008A0
:1000D0001B0100081B0100081B0100081B01000890
:1000E0001B0100081B0100081B010008DFF80CD0F1
:1000F00000F02AF800480047953400084810002016
:100100000648804706480047FEE7FEE7FEE7FEE7B1
:10011000FEE7FEE7FEE7FEE7FEE7FEE73521000823
:10012000ED00000840EA01039B0703D009E008C97D
:10013000121F08C0042AFAD203E011F8013B00F8AC
:10014000013B521EF9D27047064C074D06E0E068AD
:1001500040F0010394E8070098471034AC42F6D30E
:10016000FFF7C8FF183700083837000870B58C183B
:1001700010F8015B15F0070301D110F8013B2A11BB
:1001800006D110F8012B03E010F8016B01F8016BA8
:100190005B1EF9D12B0705D40023521E0DD401F8A4
:1001A000013BFAE710F8013BCB1A921C03E013F86D
:1001B000015B01F8015B521EF9D5A142D8D30020A2
:1001C00070BDFEE700207047002070470020704798
:1001D000704700001CB51CA1D1E90001CDE9000168
:1001E000072000F0A1F901220821194800F025F9A3
:1001F0000A2304226946174801F016FB072001F084
:10020000A5FE00F07004072001F0A0FE01462720A3
:1002100001F082FE072001F099FE10F0700FF2D17C
:10022000402C06D0FF21E22001F076FEFF21E120E4
:1002300007E0094801228168612001F09FFEFF214B
:10024000E22001F069FE1CBD696E747200000000BE
:1002500000080140A40100200C000020FEE731B599
:1002600000F0F0F8044600F0EDF80099001B884219
:10027000F9D338BD2DE9F84FDFF890A100220AF13B
:10028000040B144601274FF00F090BF1040E00BFB9
:100290000B6807FA04F52B40AB4274D1DFF870C14C
:1002A0004E68A6EB0C0866452BD00DDC032E34D02F
:1002B00005DC36B3012E19D0022E2FD11BE0112EF2
:1002C00016D0122E2AD119E0B8F5881F19D006DCF5
:1002D000B8F5803F15D0B8F5801F1FD111E0B8F5F3
:1002E000001F0ED0B8F5041F18D10AE0CA6815E047
:1002F000CA68121D12E0CA6808320FE0CA680C32E0
:100300000CE08A682AB1012A4FF0080203D0456147
:1003100004E0042202E0056100E00022FF2B01D886
:10032000064601E000F104064FEA840501D9A5F173
:100330002005D6F800C009FA05F82CEA080C02FAE4
:1003400005F54CEA050CC6F800C04D68ED0057D520
:10035000304DAE6946F00106AE61AD6924F003068A
:1003600005F0010500952C4D06EB050CDCF8085056
:10037000A6074FEA167809FA08F6B543274EB042A9
:1003800002D1002610E03BE0254EB04201D101260B
:100390000AE0244EB04201D1022605E0224EB042CE
:1003A00001D1032600E0042606FA08F62E43CCF815
:1003B00008604D68DAF80060ED03554601D51E432C
:1003C00000E09E432E604D68DBF80060AD035D46A3
:1003D00001D51E4300E09E432E604D68DEF80060AC
:1003E000ED02754601D51E4300E09E432E604D6828
:1003F000AD020E4D2E6801D51E4300E09E432E60D7
:10040000641C102CFFF444AFBDE8F88F00040140D9
:1004100000001110001002400000014000080140DF
:10042000000C014000100140001401400C04014088
:100430008068084000D0012070470AB10161704710
:100440000904FBE70148006870470000080000202D
:1004500002480168491C0160704700000800002044
:10046000074810B5016841F010010160032000F059
:1004700091F8002000F006F800F016F8002010BDFA
:100480000020024010B5044600F04AFC4FF47A7197
:10049000B0FBF1F001F054F900222146501E00F0AB
:1004A00059F8002010BD00001D4808B5816941F0D1
:1004B00001018161806900F001000090032000F0DB
:1004C00069F8002211466FF00B0000F043F800229B
:1004D00011466FF00A0000F03DF8002211466FF05F
:1004E000090000F037F800221146501F00F032F8E2
:1004F00000221146101F00F02DF800221146901E18
:1005000000F028F800221146501E00F023F805489C
:10051000416821F0E06141F08061416008BD000068
:10052000001002400000014000F01F020121914034
:100530004009800000F1E020C0F88012704700F010
:100540001F02012191404009800000F1E020C0F825
:1005500000117047F0B40E4B1B680C46C3F3022326
:10056000C3F10705042D00D90425191D072901D25F
:10057000002300E0DB1E012606FA05F1491E21409A
:1005800099409E40761E16403143F0BC01F0F0BA0F
:100590000CED00E0064900F0070208684FF6FF0383
:1005A000184040EA0220034A1043086070470000E8
:1005B0000CED00E00000FA0510B50C0605D501F0C1
:1005C0007F0100EB4110283003E000EB411000F503
:1005D000027099B232B101228272C180190C01817C
:1005E000002010BD002282728180F9E7704700EB85
:1005F0004112D0F81C04D26B02F023B900EB411277
:10060000D0F81C04D2F81C2202F070B910B50446D0
:100610000A460B0601F07F0004EB401101D528319A
:1006200001E001F502710870D009487094F8E80300
:10063000012809D0012084F8E803206802F008FDB1
:10064000002084F8E80310BD022010BD70B50A46F2
:100650000446090602F07F0003D504EB401128315F
:1006600003E004EB421101F5027100258D70087062
:10067000D009487094F8E803012809D0012084F8D3
:10068000E803206802F08CFD84F8E853002070BD78
:10069000022070BD70B504460D460E0601F07F00C5
:1006A00004EB401101D5283101E001F50271087019
:1006B000E80948700A61CB7094F8E803012809D072
:1006C000012084F8E803206802F092FB002084F8FF
:1006D000E80370BD022070BD70B504460E4601F0FF
:1006E0007F0004EB401101F5077100252CC101F8D2
:1006F0001F5C01F8200D94F8E80301280AD00120BE
:1007000084F8E8037006206802F0A4FD84F8E8533A
:10071000002070BD022070BD70B50D46044609066C
:1007200005F07F0003D504EB4011283103E004EB12
:10073000451101F5027101228A700870E8094870BC
:1007400094F8E803012807D084F8E823206802F031
:100750005CFD680602D006E0022070BD04F57B71E6
:10076000206802F01BFD002084F8E80370BD70B51E
:1007700004460E4601F07F0004EB40113C31002599
:100780002CC1012201F81F2C01F8200D94F8E80378
:10079000012809D084F8E8237006206802F05AFD89
:1007A00084F8E853002070BD022070BD10B50446E7
:1007B000006802F031FE000402D5204601F0E8F99D
:1007C000206802F029FE40050CD5206830F8441F4F
:1007D00021F480610180204600F0ECF800212046E1
:1007E00000F0FDF8206802F017FE400405D52068EF
:1007F00030F8441F21F480410180206802F00CFE93
:10080000800405D5206830F8441F21F40051018090
:10081000206802F001FEC00413D5206830F8401FA4
:1008200021F00401018021684FF43D40A1F840000F
:10083000204600F0CCF8206830F8441F21F48051A5
:100840000180206802F0E8FD00051AD5206830F824
:10085000441F21F400610180206830F8401F41F0FE
:1008600008010180206830F8401F41F00401018038
:10087000206802F0D1FDC043C00402D5204600F03C
:10088000E3F8206802F0C8FD800508D5206830F83C
:10089000441F21F400710180204600F09CF820687C
:1008A00002F0BAFDC00505D5206830F8441F21F4D8
:1008B0008071018010BD00002DE9F04186B0040078
:1008C0004FF0000504D094F8E903002620B108E0B9
:1008D000012006B0BDE8F08184F8E863204600F00E
:1008E0004BF8032084F8E903206802F050FC04F17F
:1008F0001001142288466846FFF714FC94E80F00A4
:1009000002F0A4FB0021206802F099FD5FF00107CE
:1009100004EB451080F8297000F8285F8581C670C7
:10092000066146616D1C86610F2DF1D35FF00000FA
:1009300004EB401181F8096281F80802888681F889
:100940000B62C1F81862C1F81C62401CC1F8206239
:100950000F28EDD3142241466846FFF7E3FB94E8E5
:100960000F0002F00BFC84F8246084F8E97320681F
:1009700002F002FC0020ACE708B500680B49884291
:1009800012D10B48C16941F40001C161C069002264
:1009900000F40000009011461420FFF7DBFDBDE8D5
:1009A00008401420FFF7CBBD08BD0000005C0040EC
:1009B0000010024010B504460121D0F81C0402F0DA
:1009C00055F8D4F81C04BDE8104002F01EB8D0F869
:1009D0001C0402F039B8D0F81C0402F03BB810B582
:1009E000044690F8E80301280BD0012084F8E803BE
:1009F00084F82410206802F024FD002084F8E80325
:100A000010BD022010BDD0F81C2400F57B711046EB
:100A100002F036B810B5044690F8E803012810D06B
:100A2000012084F8E80301462046FFF7DFFD206837
:100A300002F0A0FB206802F0E2FC002084F8E8034A
:100A400010BD022010BD000010B50446D0F81C04F3
:100A500002F051F8A069002804D00348016841F071
:100A60000601016010BD000010ED00E02DE9F84323
:100A700005460078454CC00774D0E06940F08050CE
:100A8000E061E069424E00F080500090306840F430
:100A900080703060FFF7D6FC074604E0FFF7D2FC19
:100AA000C01B642833D83068C005F7D5206A10F41D
:100AB000407051D0A98801F4407181424CD0206A25
:100AC0000126310491FAA1F2B2FA82F29300314A7E
:100AD00020F440701344C3F8006491FAA1F1B1FA14
:100AE00081F102EB81010023C1F800342062C007CC
:100AF00032D0FFF7A7FC074641F288394FF00208D1
:100B000008E000BFFFF79EFCC11B494502D9032046
:100B1000BDE8F88398FAA8F1B1FA81F141F04001FB
:100B20004046B6EB511F01D121680BE090FAA0F1CD
:100B3000B1FA81F141F04001B0EB511F01D1216ABE
:100B400000E0616A98FAA8F0B0FA80F000F01F02A5
:100B500006FA02F00142D5D0206A696820F440709C
:100B6000084320622878800705D56068A96820F4CA
:100B70004040084360602878C00605D56068E96891
:100B800020F48000084360600020C1E700100240AC
:100B900000700040000042422DE9F047DFF870810C
:100BA00005460E46D8F8000000F00700B0420CD20F
:100BB000D8F8001021F007013143C8F80010D8F828
:100BC000000000F00700B04277D12878514C800730
:100BD00005D56068A96820F0F000084360602878B7
:100BE000C00759D06968012001290DD0022929D0F8
:100BF0005FF0020393FAA3F2B2FA82F242F020020B
:100C0000520904D0226803E04FF40033F2E7626A2D
:100C100093FAA3F3B3FA83F303F01F03984002425D
:100C20004BD0606820F0030008436060FFF70AFCC7
:100C30006968074641F2883001290DD002298146B2
:100C400017D025E04FF00073D4E700BFFFF7FAFBA1
:100C5000C11B494501D918E081466068C0F3810095
:100C60000128F3D118E000BFFFF7ECFBC11B494599
:100C70000BD86068C0F381000228F5D10CE000BFFA
:100C8000FFF7E0FBC11B494502D90320BDE8F0870F
:100C9000606810F00C0FF3D1D8F80010404601F056
:100CA0000701B1420BD9016821F00701314301600E
:100CB000006800F00700B04201D00120E6E7287884
:100CC000400705D56068E96820F4E060084360608B
:100CD0002878000706D56068296920F4605040EA4A
:100CE000C100606000F052F86168F02292FAA2F24E
:100CF00001F0F001B2FA82F2D140074A515CC840DB
:100D0000064908600020FFF7BDFB0020BEE7000099
:100D10000020024000100240F436000800000020CD
:100D20000148006870470000000000200848094999
:100D3000006849684FF4E06292FAA2F201F4E061BF
:100D4000B2FA82F2D140044A515CC84070470000B8
:100D5000000000200010024004370008084809493C
:100D6000006849684FF4605292FAA2F201F46051AF
:100D7000B2FA82F2D140044A515CC8407047000088
:100D800000000020001002400437000810B519A32D
:100D900085B00FCB8DE80F001AA01B4B00680490A4
:100DA0005A681A4802F00C0104291DD008291BD1E9
:100DB0004FF4701494FAA4F402F47011B4FA84F4A9
:100DC000E140D2031DF8011010D55A684FF40033EA
:100DD00093FAA3F302F40032B3FA83F3DA4004ABDC
:100DE0009A5CB0FBF2F0484305B010BD0848484398
:100DF000FAE7000002030405060708090A0B0C0DB8
:100E00000E0F1010010200000010024000127A00C4
:100E100000093D002DE9F84F04460078F74DC00762
:100E20004FF0010625D068687704C0F381000128DF
:100E300007D06868C0F3810002281BD16868C0032E
:100E400018D597FAA7F0B0FA80F040F020004009DA
:100E500001D0286800E0686A97FAA7F1B1FA81F139
:100E600001F01F0106FA01F108425ED06068002817
:100E70007CD05AE06068B0F5803F0BD010B1B0F57F
:100E8000A02F11D0286820F480302860286820F432
:100E9000802002E0286840F480302860606828B331
:100EA000FFF7D0FA80460BE0286840F480202860E5
:100EB000F0E700BFFFF7C6FAA0EB0800642871D87E
:100EC00097FAA7F0B0FA80F040F02000400901D076
:100ED000286800E0686A97FAA7F1B1FA81F101F099
:100EE0001F0106FA01F10842E4D01EE0FFF7AAFA5A
:100EF000804605E0FFF7A6FAA0EB08006428DED8DC
:100F000097FAA7F0B0FA80F040F02000400901D035
:100F1000286800E0686A97FAA7F1B1FA81F101F058
:100F20001F0106FA01F10842E4D12078DFF8D082EF
:100F300080074FF000094FF002075BD568684FF05B
:100F4000F80B10F00C0F07D06868C0F3810002287E
:100F50001CD16868C00319D497FAA7F0B0FA80F0E2
:100F600040F02000400902D0286801E08BE0686A68
:100F700097FAA7F1B1FA81F101F01F0106FA01F128
:100F800008422CD0206901287DD128E0206990B347
:100F900096FAA6F0B0FA80F048F82060FFF752FA0F
:100FA000824607E011E100BFFFF74CFAA0EB0A0010
:100FB000022884D897FAA7F0B0FA80F040F0200019
:100FC000400901D0286800E0686A97FAA7F1B1FAF1
:100FD00081F101F01F0106FA01F10842E4D028680E
:100FE0009BFAABF26169B2FA82F220F0F80091400C
:100FF0000843286025E0FFE796FAA6F1B1FA81F1EF
:1010000048F82190FFF71EFA824605E0FFF71AFA2A
:10101000A0EB0A000228CCD897FAA7F0B0FA80F02B
:1010200040F02000400901D0286800E0686A97FA83
:10103000A7F1B1FA81F101F01F0106FA01F10842AE
:10104000E4D1207800076ED5A069B8B396FAA6F06F
:10105000B0FA80F008EB8000C0F88064FFF7F2F986
:10106000824605E0FFF7EEF9A0EB0A000228A0D8BF
:1010700097FAA7F0B0FA80F040F06000B6EB501F8E
:1010800002D128680CE062E197FAA7F0B0FA80F08C
:1010900040F06000B7EB501F01D1286A00E0686A99
:1010A00097FAA7F1B1FA81F101F01F0106FA01F2F6
:1010B0001042D7D00120FFF7D2F834E0FFE796FACC
:1010C000A6F1B1FA81F108EB8101C1F88094FFF734
:1010D000B9F9824606E000BFFFF7B4F9A0EB0A00B9
:1010E000022872D897FAA7F0B0FA80F040F06000BA
:1010F000B6EB501F01D128680BE097FAA7F0B0FAC1
:1011000080F040F06000B7EB501F01D1286A00E08A
:10111000686A97FAA7F1B1FA81F101F01F0106FAA6
:1011200001F21042D8D12078400765D5E86940F037
:101130008050E861E869DFF8CCB000F080500090A2
:10114000DBF8001041F48071CBF80010FFF77AF95A
:10115000824605E0FFF776F9A0EB0A00642834D850
:10116000DBF80000C005F5D5E06801280AD008B119
:10117000052813D0286A20F001002862286A20F090
:10118000040002E0286A40F001002862E06841F2B1
:10119000883B90B3FFF756F982460BE0286A40F08F
:1011A00004002862EEE700BFFFF74CF9A0EB0A014C
:1011B00059450AD897FAA7F0B0FA80F040F04000FD
:1011C000B6EB501F02D128680CE0A3E097FAA7F015
:1011D000B0FA80F040F04000B7EB501F01D1286A10
:1011E00000E0686A97FAA7F1B1FA81F101F01F02F5
:1011F00006FA02F10842D7D031E005E000100240C3
:101200000000424200700040FFF71CF9824605E0F2
:10121000FFF718F9A0EB0A0159457BD897FAA7F018
:10122000B0FA80F040F04000B6EB501F01D12868C2
:101230000BE097FAA7F0B0FA80F040F04000B7EB6F
:10124000501F01D1286A00E0686A97FAA7F1B1FA45
:1012500081F101F01F0206FA02F10842D8D1E069DB
:1012600080B36968C1F38101022970D04FF08071A9
:101270004F000228484609D091FAA1F1B1FA81F154
:1012800048F82100FFF7DEF8044669E08A4691FA43
:10129000A1F1B1FA81F1C14648F82100FFF7D2F877
:1012A000804605E0FFF7CEF8A0EB0800022854D8EE
:1012B00097FAA7F0B0FA80F040F02000400902D081
:1012C000286801E061E0686A97FAA7F1B1FA81F154
:1012D00001F01F0106FA01F10842E3D1206AB0F5DE
:1012E000803F05D16868A16820F400300843686039
:1012F000D4E908010843696821F47411084368605F
:101300009AFAAAF0B0FA80F049F82060FFF79AF84C
:10131000044606E021E000BFFFF794F8001B022816
:101320001BD897FAA7F0B0FA80F040F020004009EF
:1013300001D0286800E0686A97FAA7F1B1FA81F154
:1013400001F01F0106FA01F10842E5D01DE01EE0A0
:10135000FFF778F8001B022802D90320BDE8F88FB8
:1013600097FAA7F0B0FA80F040F02000400901D0D1
:10137000286800E0686A97FAA7F1B1FA81F101F0F4
:101380001F0106FA01F10842E2D10020E6E7012040
:10139000E4E7000010B5040003D094F8510010B148
:1013A00004E0012010BD204600F038F8022084F847
:1013B00051002068016821F040010160D4E9010179
:1013C0000843D4E903121143084361690843218BA0
:1013D00001F400710843E1690843216A0843A16AE6
:1013E000084321680860A069042101EA1040616A8D
:1013F0000843216848602168E06A08612068C16983
:1014000021F40061C1610449002008706065012079
:1014100084F85100002010BD0400002010B50068C1
:10142000114986B088421CD11048816941F480512D
:10143000816180690E4C00F480500490B0200090CF
:10144000022001900320039069462046FEF712FF18
:1014500000214020CDE90001029169462046FEF7B7
:1014600009FF06B010BD000000300140001002402E
:10147000000801402DE9F8430025DDF820800446EE
:10148000ADF8005090F85100012803D094F85100B5
:1014900022287DD169B162B15BB194F85000012876
:1014A00076D0012684F8506094F85100012803D0CA
:1014B00005E00120BDE8F883322084F8510065651D
:1014C000A263A387E3872163A386E386A564E5641B
:1014D000A06A4FF40057B84209D12068016821F48E
:1014E000005101602068016841F4005101602068EA
:1014F0000168490603D4016841F040010160E068D9
:101500004FF48271B0F5006F606807D0002867D093
:1015100088426ED1E08E012862D06AE020B1884214
:101520000CD1E08E012809D1206B21680088C860A9
:10153000206B801C2063E08E401EE086E08E80B928
:10154000A06AB84244D12068016841F4805101602A
:101550003EE02068C068A16B0880A06B801CA0637F
:101560009EE0434600220221204600F02BFD002889
:1015700074D1206B21680088C860206B801C2063B8
:10158000E08E401E0004000CE08609D1A06A00E055
:10159000C7E0B84204D12068016841F4805101607D
:1015A000434600220121204600F00CFD00286FD1A7
:1015B0002068C068A16B0880A06B801CA063E08FCE
:1015C000401EE087E08E0028CBD1606800286AD1F9
:1015D000434600220121204600F0F4FCF0BBB8E7AE
:1015E000206B411C216321680078C860E08E401E9A
:1015F000E086E08E98B9A06AB84204D120680168FC
:1016000041F480510160434600220121204600F050
:10161000D9FC18BB2068C068A16B087040E0434645
:1016200000220221204600F0CDFCB8B9206B411CFD
:10163000216321680078C860E08E401E0004000C21
:10164000E08607D1A06AB84204D12068016841F45D
:101650008051016000224346012100E018E020464D
:1016600000F0B0FCA0B92068C168A06B421CA26366
:101670000170E08F401EE087E08E0028CFD16068C7
:1016800088B9434600220121204600F09BFC08B1A6
:1016900003200FE72068C168A06B421CA2630170A1
:1016A000E08F401EE087A06AB84210D14346002276
:1016B0000121204600F086FC18B1606D40F0020068
:1016C0000FE02068C068ADF80000BDF80000434698
:1016D00001228021204600F075FC20B1606D40F0B1
:1016E00010006065D4E784F85160A06AB84214D154
:1016F00020688168C943C9060FD4616D41F00201B9
:101700006165016821F4005101602068016841F4BD
:101710000051016084F85050CBE684F8505000200E
:10172000C8E60220C6E64FF0E0210428086903D08D
:1017300020F004000861704740F00400FAE77047A9
:1017400010B5401EB0F1807F01D3012010BD4FF0D5
:10175000E02460610F21601700F00AFA0020A06108
:1017600007202061002010BD10B5FFF7E8FF10BD75
:1017700070B5040004D094F83900002510B106E0DB
:10178000012070BD84F83850204600F021F8022076
:1017900084F839002068C16821F40051C1602046F6
:1017A00000F0ECFC2068016921F49041016120689F
:1017B000416921F02A0141612068C16841F400516A
:1017C000C160E563012084F83900002070BD00008D
:1017D00010B50068114986B088421DD11048816952
:1017E00041F48041816180690E4C00F48040049096
:1017F0004FF400700090022001900320039069468E
:101800002046FEF737FD00212015CDE900010291A9
:1018100069462046FEF72EFD06B010BD0038014097
:1018200000100240000801402DE9F047044690F8FE
:10183000390099460D46012801D0222858D12DB3F0
:1018400022B394F83800012852D0012684F8386079
:101850000027E76394F8390022281AD05FF01200BD
:1018600084F83900A284E2844FF48058E08C4B461F
:10187000401EE084A0684FF0000240454FF0800118
:10188000204613D100F032FD08BB04E00120BDE882
:10189000F0873220E4E728882168C0F30800486018
:1018A000206908B16D1C08E0AD1C06E000F01EFDCB
:1018B00068B9216815F8010B4860E08C0028D5D183
:1018C0004B4600224021204600F010FD08B10320C5
:1018D000DDE794F83900322806D084F8396000BF7B
:1018E00084F838700020D2E7222084F83900F7E726
:1018F0000220CCE7FEE7000070B5234886B081697E
:1019000041F010018161816901F010010491816948
:1019100041F020018161816901F020010491816918
:1019200041F004018161816901F004010491816940
:1019300041F0080181618069012400F008000490F1
:101940000820CDE90004694610480294FEF792FC95
:101950004FF47045CDE900540D4E022469463046DF
:101960000394FEF787FCA81100900020CDE9010444
:1019700069460848FEF77EFC002229463046FEF7FD
:101980005CFD06B070BD0000001002400008014080
:10199000000C01400010014070B5244886B08169F8
:1019A00041F004018161816901F0040104918169C0
:1019B00041F4805181618069012500F480500490D8
:1019C000A02000900220CDE90105194E694630465D
:1019D000FEF750FC00244020CDE900046946304663
:1019E0000294FEF747FC1020CDE900056946304619
:1019F0000295FEF73FFC10480E4901604FF48271DA
:101A0000C0E90114C46069020461C0E905413021E4
:101A1000C0E907140A214462C0E90A41FFF7BAFC91
:101A2000002800D0FEE706B070BD000000100240A4
:101A300000080140003001404C010020F0B51A4878
:101A400085B0816941F480418161806901AA00F417
:101A5000804004904FF4007000900220012503267E
:101A600082E86100114F69463846FEF703FCA80280
:101A700000248DE8710069463846FEF7FBFB0D48EF
:101A80000B4901604FF4E131C0E901140C21C4603D
:101A9000C0E904418461C461FFF76AFE002800D0F8
:101AA000FEE705B0F0BD0000001002400008014054
:101AB00000380140A401002010B50022084909485F
:101AC00000F09CFE0849074801F039F8074905482D
:101AD00000F0C9FCBDE81040024801F07DB80000EC
:101AE0005C00002020080020C4000020B40000207A
:101AF000FEE7704710B51C4C012208212046FEF776
:101B00009CFC0B21202000F007FA0121212000F08D
:101B100003FA0121222000F0FFF90321232000F025
:101B2000FBF91A21242000F0F7F90021252000F00C
:101B3000F3F90721262000F0EFF90121312000F010
:101B4000EBF905220949302000F08CFA07490522FB
:101B5000491D2A2000F086FA20460022BDE81040E8
:101B60000821FEF76ABC0000000801400C3700089D
:101B70000907090E002806DA00F00F0000F1E02046
:101B800080F8141D704700F1E02080F800147047C1
:101B90002DE9FC5F4FF000080446ADF80480ADF875
:101BA000008048F60F7B4FF002094FF4806692E107
:101BB000BDF8041011F00F072BD030F82710ADF846
:101BC0000010BDF80010090478D530F8272040F641
:101BD0008F710A4020F8272004EB471595F8120270
:101BE00005F502750028206869D0297830F8212091
:101BF00052047DD5B0F8503009EBC101194406EB11
:101C00004101415AC1F309015FEA010A71D0EA8832
:101C1000D0E0BDF80410C9062AD4018801EA0B01FE
:101C20000180206804F12805B0F850202B7809EBDA
:101C3000C301114406EB4101405AC0F3090060643E
:101C4000E16B0844E06300212046FEF7D0FC94F8E5
:101C500024000028ABD0A8690028A8D194F824005B
:101C6000216840F08000A1F84C0084F8248032E123
:101C7000018804F50275ADF80010BDF800100905E3
:101C80001ED5B0F850302978062202EBC101194464
:101C900006EB4101405A04F57B71C0F30903EB6187
:101CA000AA88206801F0BCFB2068018840F68F728A
:101CB000114001802046FEF7A6FE0CE1A0E055E0B1
:101CC000BDF800100904D2D5028840F68F710A4091
:101CD00002802068B0F850302978062202EBC1015A
:101CE000194406EB4101405A83059B0DEB6101E06D
:101CF00051E063E008D0AA886969206801F090FB90
:101D0000E96968690844686100212046FEF776FCAD
:101D10002068B0F85010891D06EB41010144286984
:101D20003E280CD9C0F34F12C00601D1521E92B208
:101D30004FF6FF7000EA822040F4004009E0C0F353
:101D40004F02C00701D0521C92B24FF6FF7000EA5A
:101D500082200860216808884BF68F72104080F45A
:101D6000405048F2800210430880B4E0B0F85020A0
:101D70002B78062101EBC301114406EB4101415AC6
:101D8000C1F309015FEA010A24D0AA8853466969B0
:101D900001F046FB1EE0B0F85020062303EBC10122
:101DA000114406EB4101415AC1F309015FEA010AFE
:101DB00004D02A895346696901F032FB29782068EA
:101DC00030F8213048F68F72134048F2C0021343B6
:101DD00020F82130E96901EB0A00E861696901EB4B
:101DE0000A026A61AB6913B12869504504D92978A0
:101DF0002046FEF703FC03E029782046FEF76CFC42
:101E0000BDF80000000666D5206804EB471530F8E1
:101E1000271001EA0B0120F8271095F83200283529
:101E20000028206812D0297830F82120B0F85030EE
:101E300052061ED509EBC101194406EB4101405A77
:101E400083059B0DEB6124D0EA881EE0B0F850308A
:101E50002A7809EBC201194406EB4101405A830577
:101E60009B0DEB6121D0AA886969206801F0EFFA27
:101E70001BE0062202EBC101194406EB4101405A66
:101E800083059B0DEB6104D02A896969206801F004
:101E9000DEFA2978206830F8212048F68F731A403E
:101EA0004CF280031A4320F821202068B0F850201B
:101EB0002B7809EBC301114406EB4101405AC0F3F2
:101EC0000900E86169690A186A612978AB692046E6
:101ED00063B1FEF74CFC2068B0F84410ADF8041074
:101EE00009043FF565AE0020BDE8FC9FFEF77FFBCF
:101EF000F1E7704701B582B000208DF8040064203E
:101F00000090012301AA02A90248FFF7B3FA9DF845
:101F100004000EBD4C01002070B50B4D0E4604466A
:101F2000002210212846FEF788FA2046FFF7E2FF3C
:101F300004463046FFF7DEFF012210212846FEF757
:101F40007CFA204670BD00000008014070B50A4DC3
:101F50000446002210212846FEF76FFA2046FFF7BC
:101F6000C9FF0020FFF7C6FF0446012210212846C2
:101F7000FEF763FA204670BD000801402DE9F041EC
:101F8000DFF83C8015460F460446002210214046EB
:101F9000FEF753FA2046FFF7ADFF0646002405E0A2
:101FA0000020FFF7A7FF3855641CE4B2AC42F7D31A
:101FB000012210214046FEF740FA3046BDE8F0818C
:101FC000000801402DE9F0471D4690460E460446A4
:101FD000FEF738FA07465FEA08004FF000084FF4B2
:101FE000005A4FF0010926D034E0681C23D025B1F7
:101FF000FEF728FAC01BA8421DD92068416821F0CD
:10200000E00141602068016821F040010160A06AA0
:10201000504509D12068016821F400510160206811
:10202000016841F40051016084F8519084F85080B7
:102030000320BDE8F0872068806836EA0000D4D12C
:102040000DE0681C06D0002DD7D0FEF7FBF9C01BB1
:10205000A842D2D82068806836EA0000F1D000207B
:10206000E7E700002DE9F041DFF83C8016460D4619
:102070000446002210214046FEF7DFF92046FFF714
:1020800039FF0746002405E015F8010BFFF732FF82
:10209000641CE4B2B442F7D3012210214046FEF79B
:1020A000CCF93846BDE8F08100080140704710B512
:1020B000FEF7CEF9BDE81040FFF756BB30B593B040
:1020C0000120009000040024CDE901040225CDE99F
:1020D00007504FF4E01009906846FEF79BFE00B1F0
:1020E000FEE70F20CDE90A054FF48060CDE90C40F2
:1020F00002210AA80E94FEF74FFD00B1FEE7102062
:102100000F9012940FA8FEF7B1FC00B1FEE7FEF7A6
:1021100007FE4FF47A71B0FBF1F0FFF711FB0420DA
:10212000FFF701FB00221146501EFEF713FA13B011
:1021300030BD00000D48016841F0010101604168B7
:102140000B4A1140416001680A4A11400160016870
:1021500021F480210160416821F4FE0141604FF4C7
:102160001F0181600449C0030860704700100240ED
:102170000000FFF8FFFFF6FE08ED00E02DE9F0415A
:10218000044600680169E26821F44051114301618D
:102190002169A0680843616908432168CA6841F25F
:1021A0000C639A430243CA6020684169A26921F422
:1021B0004071114341614C492068642532268842B0
:1021C0003CD1FEF7CBFD00EBC00101EB00106168D4
:1021D0008900B0FBF1F7FEF7C1FD00EBC00101EB98
:1021E00000106168B0468900B0FBF1F0B0FBF5F07B
:1021F0006FF01801484307EB800106EB0110B0FBBC
:10220000F5F000F0F006FEF7A9FD00EBC00101EBD0
:10221000001061688900B0FBF1F0B0FBF5F006EB4F
:102220000016FEF79BFD00EBC00101EB001061689A
:102230008900B0FBF1F7FEF791FD3BE0FEF776FD7C
:1022400000EBC00101EB001061688900B0FBF1F701
:10225000FEF76CFD00EBC00101EB00106168B046B9
:102260008900B0FBF1F0B0FBF5F06FF018014843C6
:1022700007EB800106EB0110B0FBF5F000F0F00673
:10228000FEF754FD00EBC00101EB0010616889000E
:10229000B0FBF1F0B0FBF5F006EB0016FEF746FDE3
:1022A00000EBC00101EB001061688900B0FBF1F7A1
:1022B000FEF73CFD00EBC00101EB001061688900F6
:1022C000B0FBF1F0B0FBF5F06FF01801484307EBFD
:1022D000800108EB0110B0FBF5F0216800F00F0061
:1022E00030448860BDE8F081003801402DE9F047B6
:1022F0001D4690460E460446FEF7A4F807465FEAE0
:1023000008004FF000094FF0010808D030E0681CC9
:1023100005D095B1FEF796F8C01BA8420DD82068ED
:10232000006836EA0000F2D127E0681C20D025B111
:10233000FEF788F8C01BA8421AD92068C16821F0AE
:102340008001C1602068C16821F02001C16020685F
:10235000C16821F48071C1602068416921F00101E8
:10236000416184F8398084F838900320BDE8F08713
:102370002068006836EA0000D7D00020F6E7D0F8E1
:102380001802002101750846704770B50546D0F85F
:102390001842D5F81C226178D26820789047022331
:1023A00022460121284600F029FB002070BD10B50F
:1023B0000446812100F03EFA0121204600F03AFA5D
:1023C000D4F8180250B1D4F81C0204F506748068E1
:1023D0008047206800F006FD00202060002010BD2E
:1023E00010B5D0F818422169012908D1D0F81C0293
:1023F00023786178C2681846904700202061002049
:1024000010BD000029210180004870470001002014
:102410000A210180004870473801002070B5064647
:10242000002502230322812100F0DEFA0223032289
:102430000121304600F0D8FA182000F0D5FCC6F88B
:10244000180270B1044600202075D6F81C024068BE
:102450008047022322460121304600F0CFFA284669
:1024600070BD0125FBE702460220002902D00020B2
:10247000C2F81C127047000070B500220D78D0F829
:102480001832144615F0600525D0202D4BD14A781E
:10249000921E0A2A1BD2DFE802F00F081A1A1A1A33
:1024A0001A130B05887858603DE00122191D31E0B0
:1024B0004888000A986036E0012203F1080129E00B
:1024C00001221A618A79194600F054F82BE000F0D5
:1024D00046F8022070BD4D78062D04D00A2D1CD080
:1024E0000B2D20D11DE04B882225B5EB132F07D1F2
:1024F000CA88212A00D92122D0F81C120C6808E0D1
:102500002125B5EB132F04D1CA88084C092A00D91C
:102510000922214600F048F805E0012203F10C01F0
:10252000F8E78878D860002070BD00002C010020FA
:1025300010B5D0F8142252689047002010BD134601
:1025400010B50A46002100F059FA002010BD1346CC
:1025500010B50A46002100F0D7FA002010BD10B5D2
:102560000446802100F0B9FA2046BDE81040002161
:1025700000F0B3BA10B50323C0F80821C0F8F43155
:10258000C0F80C2113460A46002100F037FA00205B
:1025900010BD10B505210023C0F8F4111A461946E4
:1025A00000F02CFA002010BD10B502238261C0F8A3
:1025B000F431C26113460A46002100F0A5FA00205A
:1025C00010BD10B504210023C0F8F4111A461946B5
:1025D00000F09AFA002010BD10B50A46024903A087
:1025E00000F0E9F8004810BD200600204375737420
:1025F0006F6D2048494420436F6E66696700000094
:1026000012200880004870477C00002010B50A4660
:10261000024903A000F0CFF8004810BD20060020BA
:10262000437573746F6D2048494420496E74657218
:102630006661636500000000042008800048704760
:102640007800002010B50A46024903A000F0B3F854
:10265000004810BD2006002053544D6963726F6519
:102660006C656374726F6E696373000010B50A461F
:10267000024903A000F09FF8004810BD200600208A
:1026800053544D333220437573746F6D2048756D0C
:10269000616E20696E74657266616365000000009A
:1026A00010B50A46024903A000F085F8004810BDA5
:1026B0002006002030303030303030303030314182
:1026C00000000000F8B5044648880D46010A0829B4
:1026D00054D2DFE801F05304091753534951D4F899
:1026E0001012207C0A6819E0207C02260028D4F809
:1026F000140205D0C16A68468847014646704AE020
:10270000816AF8E7C1B2062926D2DFE801F0030AA0
:102710000F14191ED4F81012207C4A68694690479D
:1027200018E0D4F81012207C8A68F7E7D4F8101269
:10273000207CCA68F2E7D4F81012207C0A69EDE721
:10274000D4F81012207C4A69E8E7D4F81012207CF3
:102750008A69E3E701461EE0C1B2D4F814026A4672
:10276000836B20469847F5E7207C38B9D4F81402EB
:10277000416B68468847EDE7207C20B1294620461A
:10278000FFF7EDFEF8BDD4F81402016B68468847E8
:10279000014607204870BDF800000028F2D0EA8802
:1027A000002AEFD0824200D90246ADF80020204630
:1027B000FFF7FAFEF8BD70B5002300281DD00446CF
:1027C000002502E06D1CEDB2641C2678002EF9D1C4
:1027D000022404EB45041480CC545B1C0322CA542D
:1027E00000245B1C06E0CA545B1CDAB28C54521CF9
:1027F000D3B2401C0278002AF5D170BD10B580B16B
:10280000D0F8143213B10023C0F8143209B1C0F863
:102810001012012180F8FC11027000F09DF80020D8
:1028200010BD022010BD10B5D0F82002FDF70EFF3C
:10283000002010BD10B5D0F82002FDF7E7FE002003
:1028400010BD2DE9F0411746044641B1D4F81402F9
:1028500042698AB394F8FC01032842D043E0D4F8DB
:10286000F411002504F11400022933D1D0E90263E8
:102870009E4207D9F31A83609AB239462046FFF781
:1028800066FE12E04068B0FBF3F103FB1101A1B951
:10289000984212D3D4F8F81188420ED20022114681
:1028A0002046FFF754FEC4F8F85100231A46194693
:1028B000204600F0A3F80DE012E0D4F81402C1683D
:1028C00029B194F8FC01032801D12046884720460D
:1028D000FFF75FFE94F80002012804D184F800524B
:1028E00001E0204690470020BDE8F08170B5154614
:1028F000044641B1D4F8140282693AB394F8FC0159
:10290000032824D025E0D4F8F41104F582700329BB
:102910001FD1D0E902218A420BD9531A836008469D
:10292000834200D303469AB229462046FFF707FEAA
:102930000FE0D4F81402016929B194F8FC010328CE
:1029400001D1204688472046FFF73BFE01E02046A4
:102950009047002070BD000010B51A490446C1F828
:102960001C04C0F8201218480860082048600220A3
:1029700088600320C86000208861C861086208463A
:10298000FDF79AFF08B1FDF769FC0022D4F8200298
:102990001823114604F50874FDF70EFE5823002293
:1029A00080212068FDF708FE9823002281212068FD
:1029B000FDF702FED823002201212068FDF7FCFD6F
:1029C000002010BD00020020005C00400A06D0F884
:1029D000200201F07F0100EB411002D590F82A009F
:1029E000704790F80A02704710B51C461346D0F89D
:1029F00020022246FDF74EFE002010BD10B5D0F893
:102A00002002FDF769FE002010BD70B500220446CB
:102A100040231146FFF7E8FF40252B460022802186
:102A20002046C4F81051FFF7DFFF0120256284F82B
:102A3000FC01D4F8180228B1D4F8140221794268B4
:102A400020469047002070BD90F8FD1180F8FC11E1
:102A50000020704710B590F8FC11032904D1D0F87C
:102A60001412C96901B18847002010BD017400200B
:102A7000704710B5D0F82002FDF7B1FF002010BD5F
:102A800070B5044600F50270054600F044F80120D8
:102A9000C4F8F401B4F80E02C4F8F80194F808027E
:102AA00010F01F010AD001290DD0022910D000F02A
:102AB0008001204600F011F8002070BD2946204614
:102AC00000F08FF8F8E72946204600F071F9F3E7A7
:102AD0002946204600F0FEF8EEE710B5D0F82002B7
:102AE000FDF71AFE002010BD10B5D0F82002FDF74A
:102AF00091FF002010BD90F8FC1180F8FD11042119
:102B000080F8FC110020704710B5D0F82002FDF7C6
:102B10002EFE002010BD0A7802704A7842708A7832
:102B2000CB7802EB032242800A794B7902EB032235
:102B300082808A79C97902EB0121C18070470246FF
:102B4000002011B1C2F8141270470220704710B56E
:102B5000D0F8142202241AB11268904700B9002458
:102B6000204610BD70B50E461A4D8978044629706E
:102B7000012928D894F8FC01022802D0032822D188
:102B800005E099B10320616084F8FC0109E091B18E
:102B9000606888420AD0C1B22046FFF7C9FC297894
:102BA00061602046FFF7D3FF02280CD02046BDE825
:102BB0007040FFF706BD022084F8FC0120466160EA
:102BC000FFF7B6FCF2E731462046BDE87040FFF75C
:102BD000C6BC00004201002010B5FFF785FF0020B1
:102BE00010BD2DE9F04100264B78012532460A2B15
:102BF00043D2DFE803F03C584251420805422A27FD
:102C0000FFF760FD63E004468888C8B9C888B8B992
:102C1000887800F07F0794F8FC01032810D084F82E
:102C2000FE7139462046FFF724FF2046FFF7C9FC16
:102C30001FB1022084F8FC0149E084F8FC5146E011
:102C400020461AE0FFF78EFF41E0CB88012B14D11C
:102C500090F8FC31022B02D0032B0ED104E08260ED
:102C6000012200F1080114E00122011D11E090F899
:102C7000FC21022A04D0032A02D0FFF770FC26E0D0
:102C8000C560D0F8041209B10321C160022200F12D
:102C90000C01FFF789FC1AE004464888012816D188
:102CA000C4F804520BE0044690F8FC01022801D05D
:102CB0000328C5D14888012809D1C4F80422D4F8D2
:102CC00014028268204690472046FFF77AFC30467F
:102CD000BDE8F08170B50D460446287800260979D4
:102CE000C0F34110012806D06878A0B301281FD096
:102CF00003283FD107E0D4F8140229468268204611
:102D00009047002070BD94F8FC01022817D00328DA
:102D10002CD1688828B921B1802902D02046FFF73C
:102D2000DCFED4F81402294682682046904713E05E
:102D300094F8FC01022802D0032817D103E0C9B19E
:102D400080291BD116E06888A0B9480604D0204627
:102D5000FFF769FDE5E703E02046FFF732FC09E0F5
:102D600094F8FC01022807D003280BD029462046FE
:102D7000FFF7F5FB304670BD4806FBD02046FFF755
:102D8000ACFEF7E7080601F07F0004EB001501D563
:102D9000143501E005F582752046FFF717FE00B1F6
:102DA00001202860022229462046FFF7FDFBE1E7CB
:102DB00070B5054690F8FC010C4603280DD120792A
:102DC00001280AD8D5F81402826828469047E0887E
:102DD00030B92846FFF7F5FB02E02846FFF7BFFBB6
:102DE000002070BD7047000000487047E4010020DB
:102DF0002DE9F047CC780A7848F68F1334B1012CCE
:102E00006DD0022C08D0032C13D10BE030F82240F7
:102E10001C4044F400730AE030F822401C4020F8C3
:102E2000224006E030F822401C4044F4C06320F801
:102E300022300C7830F8245048F68F72154048F252
:102E400080031D43254320F824508D7A48F6BF792E
:102E500004274BF68F7A48F2C0044CF28006EDB39B
:102E60000D7830F825C048F280180CEA020C4CEAC4
:102E7000080C20F825C0CD88B0F850C025F0010519
:102E800091F800800CEBC80C00EB4C0CCCF8005413
:102E90000D89B0F850C025F0010591F8008007EBCE
:102EA000C807674400EB4707C7F800544D78002D6A
:102EB0000D7830F825704FEA47477DD0002F05DAAE
:102EC00030F825701740374320F825700D7830F81A
:102ED00025707F0608D530F8257001E024E01DE05C
:102EE0001740274320F825700C7830F824501540FF
:102EF000354320F824500C7830F8242002EA0902E7
:102F00001A4320F824200A7830F8221001EA0A0136
:102F1000194320F822100020BDE8F08730F8224045
:102F20001C4044F4806382E74D78F5B18D88B0F899
:102F3000506025F001050F7806EBC70600EB46064A
:102F4000C6F800540D7830F82560760605D530F8BF
:102F500025601640264320F825600A7830F82210B4
:102F600001EA090181F02001D2E78C88B0F85050C5
:102F700024F0010491F800C007EBCC073D4400EBBE
:102F80004505C5F80044B0F850400D78062707EB1A
:102F9000C5052C4400EB44070C694FF6FF7C07F590
:102FA00080673E2C0CD9C4F34F15E40601D16D1E89
:102FB000ADB20CEA852400E01EE044F4004407E0D2
:102FC000C4F34F05E40701D06D1CADB20CEA8524B3
:102FD0003C600C7830F824506D0405D530F824504E
:102FE0001540354320F824500A7830F8221001EAC1
:102FF0000A0181F440518BE7002F05DA30F8257083
:103000001740374320F825700D7830F82560760694
:1030100005D530F825601640264320F825600E7847
:1030200030F826501540254320F826500C7830F80B
:10303000242002EA0A0282F440521A4320F8242093
:103040000A7830F8221001EA090161E70020704790
:103050002DE9F04391F80A8091F801C00A7848F60A
:10306000BF774BF68F7948F2800348F2C0054CF2E7
:10307000800648F68F74B8F1000F2ED0BCF1000F17
:1030800030F822C04FEA4C4C4ED0BCF1000F07DAAA
:1030900030F822C00CEA040C4CEA060C20F822C0DE
:1030A0000A7830F822C05FEA4C6C07D530F822C0AD
:1030B0000CEA040C4CEA050C20F822C00A7830F81F
:1030C00022502540354320F822500C7830F8242037
:1030D0003A401A4320F824201BE0BCF1000F0ED028
:1030E00030F82260760605D530F8226026402E435F
:1030F00020F822600A7830F8221039400EE030F8CB
:1031000022506D0405D530F822502540354320F873
:1031100022500A7830F8221001EA0901194320F8F8
:1031200022100020BDE8F083BCF1000F07DA30F870
:1031300022C00CEA040C4CEA060C20F822C00A78E3
:1031400030F82260760605D530F8226026402E43FE
:1031500020F822600E7830F8262022402A4320F8FA
:1031600026200C7830F8242002EA09021A4320F8BD
:103170002420BFE70020704700207047012120F87D
:10318000401F00210180818001820846704730F88D
:10319000401F21F43D41018000207047002070470E
:1031A00030B54D780A78002D48F68F7430F82250EB
:1031B00048F2800312D06D0607D530F82250254022
:1031C00048F2C004254320F822500A7830F8221033
:1031D00048F6BF74214081F0300111E06D0407D53D
:1031E00030F8225025404CF28004254320F822502C
:1031F0000A7830F822104BF68F74214081F4405148
:10320000194320F82210002030BD10B50A7848F28A
:10321000800352B14978002930F8221010D048F6C6
:10322000BF74214081F010010FE001884BF6BF729E
:10323000114081F4805181F010011943018007E0B1
:103240004BF68F74214081F48051194320F82210ED
:10325000002010BD2DE9F0410D460646896995F81C
:1032600001C00023AA7A022728690C4648F2800888
:10327000BCF1010F05D0814252D90446081AA86159
:103280004FE0814203D90446081AA86100E0AB610F
:103290007AB1287836F820104906B6F8501007EBB6
:1032A000C000084406EB4000C0F8004412D52A894B
:1032B00011E0A3B2AA883046696900F0C8F8B6F8F0
:1032C0005000297807EBC101084406EB4000C0F824
:1032D00000441CE0EA88A3B23046696900F0B7F800
:1032E000687848F68F7110B1012807D00FE0287870
:1032F00036F820200A4048F2C00105E0287836F868
:1033000020200A404CF280010A4326F82020297828
:1033100036F8210048F6BF72104080F0300067E0B8
:10332000AB6106234FF6FF701AB1BCF1000F1BD042
:1033300056E0B6F850102A783E2C03EBC202114436
:1033400006EB410202F5806239D9C4F34F11E3065E
:1033500032D000BF00EA812040F4004002E000BF0C
:1033600000EA812010603BE0B6F850102A783E2C2D
:1033700007EBC202114406EB410202F580620BD951
:10338000C4F34F115FEAC46C01D1491E89B200EA4F
:10339000812141F4004108E0C4F34F015FEAC47C9D
:1033A00001D0491C89B200EA8121116069780029A5
:1033B000BFD001290AD013E0491E89B2CAE7C4F37D
:1033C0004F01E307CCD0491C89B2C9E7B6F85000D9
:1033D000297807EBC101084406EB4000C0F800441F
:1033E000297836F821004BF68F72104080F4405057
:1033F00040EA080026F821000020BDE8F08130F8FE
:10340000401F41F43D410180002070470148FDF715
:10341000CDB9000000020020B0F844007047000061
:103420005B1C00EB42005B0800F5806006D000BF2B
:1034300030F8042B21F8022B5B1EF9D170470020D5
:10344000704711B98021A0F84C100020704710B5CA
:103450005B1C00EB42005B0800F5806009D011F8AE
:10346000012B5B1E11F8014B42EA042220F8042BC9
:10347000F5D110BDFEE702E008C8121F08C1002AFE
:10348000FAD170477047002001E001C1121F002AE5
:10349000FBD170470EB53AA207CA8DE8070001209C
:1034A00000F07AF8394C002560600570012000F0CA
:1034B00073F8A0600570012000F06EF8E060057000
:1034C000FCF7CEFFFEF7FAFDFEF716FAFEF764FAF8
:1034D000FEF7B4FA0A230B2269462D48FEF7A4F939
:1034E000FEF7EAFA0A230B2269462948FEF79CF9FF
:1034F000FEF700FB274D012208212846FCF79DFF1F
:10350000FF21E220FEF708FDFF21E120FEF704FD88
:103510000720FDF709F8012208212846FCF78DFF56
:103520000720FEF713FD01462720FEF7F5FCFF27D5
:103530004FF4FA76012208212846FCF77EFF00F0BE
:10354000A1F82078FF280FD030308DF80000616896
:1035500028300870084600F055F80A230B22694607
:103560000B48FEF761F927703046FCF778FE002221
:1035700008212846FCF761FF3046FCF770FED9E7CA
:1035800048656C6C6F2C484944217E000C0000207B
:10359000A401002000080140F0B50B30154D20F0CB
:1035A00007010024144A0FE003688B420BD38B42BF
:1035B00005D95E1A43184768C3E9006700E043680D
:1035C000136002C004E0021D10680028ECD1204600
:1035D000002802D1286808B10020F0BD064A07483B
:1035E0001060074A121A22F00702C0E900240120E5
:1035F0002860D7E748010020440100204C0A002041
:10360000480C002070B5054664240720FEF79EFC98
:1036100010F0010F06D0641EE4B2FCD2FF21E120BD
:10362000FEF77AFC164C012208212046FCF705FF24
:1036300001222946A020FEF715FD01212120FEF7D9
:103640006BFC01212220FEF767FC1A212420FEF7E3
:1036500063FC00212520FEF75FFC07212620FEF7F2
:103660005BFC0A212020FEF757FC0122082120469E
:10367000FCF7E3FE0720FEF769FC0028FDD070BDD3
:10368000000801402DE9F047194F0024A7F1300947
:10369000A7F1200606EBC40856F83400B8F8041069
:1036A0000122FCF7CAFE002507EBC500818857F808
:1036B0003500FCF7BDFE012815D06D1CEDB2042DC0
:1036C000F2D300BF99F80000FF280AD1B8F804101F
:1036D00056F834000022FCF7B0FE641CE4B2042C5F
:1036E000D8D3BDE8F08705EB840089F80000E9E74E
:1036F0003C00002000000000000000000102030464
:1037000006070809000000000102030434431010FA
:103710000134431010010000383700080000002079
:103720004C0100006C010008043800084C01002026
:10373000FC0E0000863400081184A24A040210FF27
:10374000140C01405A10085A20085A400832802CA4
:103750001001400F2908290F2908115A01082202D7
:103760001301261B0839041A45041A6D041AA10412
:1037700013D9251B080D082F040309041201261173
:103780001640830450571D020102033C100A058CA9
:103790000901A1010903151226780AFF7508954051
:1037A000810209040D349102C022901420C9011B2A
:1037B00008C5041ACD04131D241408AF231B08796F
:1037C00008411AE10C1A7F041A8B04C11A052069FA
:1037D000045A112C1409022913010125C0320904CD
:1037E0002B02031214211101140122211607058155
:1037F00003022D2007050107A91A314B0A06BC292F
:04380000EF81000054
:04000005080000ED02
:00000001FF
