:020000040800F2
:10000000F00D0020010100089B150008791400087C
:10001000991500086D010008792C00080000000007
:10002000000000000000000000000000211900088E
:100030007B010008000000001F19000823190008B8
:100040001B0100081B0100081B0100081B01000820
:100050001B0100081B0100081B0100081B01000810
:100060001B0100081B0100081B0100081B01000800
:100070001B0100081B0100081B0100081B010008F0
:100080001B0100081B0100081B0100081B010008E0
:10009000112C00081B0100081B0100081B010008AF
:1000A0001B0100081B0100081B0100081B010008C0
:1000B0001B0100081B0100081B0100081B010008B0
:1000C0001B0100081B0100081B0100081B010008A0
:1000D0001B0100081B0100081B0100081B01000890
:1000E0001B0100081B0100081B010008DFF80CD0F1
:1000F00000F02AF800480047992C0008F00D002075
:100100000648804706480047FEE7FEE7FEE7FEE7B1
:10011000FEE7FEE7FEE7FEE7FEE7FEE7A9190008B7
:10012000ED00000840EA01039B0703D009E008C97D
:10013000121F08C0042AFAD203E011F8013B00F8AC
:10014000013B521EF9D27047064C074D06E0E068AD
:1001500040F0010394E8070098471034AC42F6D30E
:10016000FFF7C8FF202D0008402D0008FEE7002003
:10017000704700207047002070477047FEE731B598
:1001800000F0ECF8044600F0E9F80099001B884202
:10019000F9D338BD2DE9F84FDFF890A100220AF11C
:1001A000040B144601274FF00F090BF1040E00BF9A
:1001B0000B6807FA04F52B40AB4274D1DFF870C12D
:1001C0004E68A6EB0C0866452BD00DDC032E34D010
:1001D00005DC36B3012E19D0022E2FD11BE0112ED3
:1001E00016D0122E2AD119E0B8F5881F19D006DCD6
:1001F000B8F5803F15D0B8F5801F1FD111E0B8F5D4
:10020000001F0ED0B8F5041F18D10AE0CA6815E027
:10021000CA68121D12E0CA6808320FE0CA680C32C0
:100220000CE08A682AB1012A4FF0080203D0456128
:1002300004E0042202E0056100E00022FF2B01D867
:10024000064601E000F104064FEA840501D9A5F154
:100250002005D6F800C009FA05F82CEA080C02FAC5
:1002600005F54CEA050CC6F800C04D68ED0057D501
:10027000304DAE6946F00106AE61AD6924F003066B
:1002800005F0010500952C4D06EB050CDCF8085037
:10029000A6074FEA167809FA08F6B543274EB0428A
:1002A00002D1002610E03BE0254EB04201D10126EC
:1002B0000AE0244EB04201D1022605E0224EB042AF
:1002C00001D1032600E0042606FA08F62E43CCF8F6
:1002D00008604D68DAF80060ED03554601D51E430D
:1002E00000E09E432E604D68DBF80060AD035D4684
:1002F00001D51E4300E09E432E604D68DEF800608D
:10030000ED02754601D51E4300E09E432E604D6808
:10031000AD020E4D2E6801D51E4300E09E432E60B7
:10032000641C102CFFF444AFBDE8F88F00040140BA
:1003300000001110001002400000014000080140C0
:10034000000C014000100140001401400C04014069
:100350000AB1016170470904FBE700000148006829
:10036000704700000800002002480168491C016035
:100370007047000008000020074810B5016841F0F0
:1003800010010160032000F087F8002000F006F85B
:1003900000F016F8002010BD0020024010B5044601
:1003A00000F040FC4FF47A71B0FBF1F000F0F1FF87
:1003B00000222146501E00F04FF8002010BD000022
:1003C0001D4808B5816941F001018161806900F033
:1003D00001000090032000F05FF8002211466FF04A
:1003E0000B0000F039F8002211466FF00A0000F00F
:1003F00033F8002211466FF0090000F02DF80022BA
:100400001146501F00F028F800221146101F00F07E
:1004100023F800221146901E00F01EF8002211461B
:10042000501E00F019F80548416821F0E06141F0E4
:100430008061416008BD00000010024000000140E2
:1004400000F01F02012191404009800000F1E020EE
:10045000C0F8001170470000F0B40E4B1B680C464A
:10046000C3F30223C3F10705042D00D90425191D88
:10047000072901D2002300E0DB1E012606FA05F160
:10048000491E214099409E40761E16403143F0BCE3
:1004900001F084B80CED00E0064900F0070208689E
:1004A0004FF6FF03184040EA0220034A1043086059
:1004B000704700000CED00E00000FA0510B50C06D6
:1004C00005D501F07F0100EB4110283003E000EB7F
:1004D000411000F5027099B232B101228272C180DE
:1004E000190C0181002010BD002282728180F9E781
:1004F000704700EB4112D0F81C04D26B01F0A3BD91
:1005000000EB4112D0F81C04D2F81C2201F0F0BD1F
:1005100010B504460A460B0601F07F0004EB4011BB
:1005200001D5283101E001F502710870D009487049
:1005300094F8E803012809D0012084F8E803206832
:1005400002F088F9002084F8E80310BD022010BDF5
:1005500070B50A460446090602F07F0003D504EB95
:100560004011283103E004EB421101F5027100252E
:100570008D700870D009487094F8E803012809D0FC
:10058000012084F8E803206802F00CFA84F8E853AC
:10059000002070BD022070BD70B504460D460E06E9
:1005A00001F07F0004EB401101D5283101E001F595
:1005B00002710870E80948700A61CB7094F8E8038A
:1005C000012809D0012084F8E803206802F012F81D
:1005D000002084F8E80370BD022070BD70B50446A9
:1005E0000E4601F07F0004EB401101F50771002574
:1005F0002CC101F81F5C01F8200D94F8E8030128D4
:100600000AD0012084F8E8037006206802F024FA7A
:1006100084F8E853002070BD022070BD70B50D460F
:100620000446090605F07F0003D504EB401128318C
:1006300003E004EB451101F5027101228A70087094
:10064000E809487094F8E803012807D084F8E82303
:10065000206802F0DCF9680602D006E0022070BDD6
:1006600004F57B71206802F09BF9002084F8E80310
:1006700070BD70B504460E4601F07F0004EB4011DA
:100680003C3100252CC1012201F81F2C01F8200D5E
:1006900094F8E803012809D084F8E823700620685C
:1006A00002F0DAF984F8E853002070BD022070BD32
:1006B00010B50446006802F0B1FA000402D52046E5
:1006C00000F07CFF206802F0A9FA40050CD52068F4
:1006D00030F8441F21F480610180204600F0ECF8DE
:1006E0000021204600F0FDF8206802F097FA40044F
:1006F00005D5206830F8441F21F48041018020682E
:1007000002F08CFA800405D5206830F8441F21F4EB
:1007100000510180206802F081FAC00413D52068DE
:1007200030F8401F21F00401018021684FF43D4062
:10073000A1F84000204600F0CCF8206830F8441FB3
:1007400021F480510180206802F068FA00051AD572
:10075000206830F8441F21F400610180206830F8DF
:10076000401F41F008010180206830F8401F41F02F
:1007700004010180206802F051FAC043C00402D590
:10078000204600F0E3F8206802F048FA800508D51A
:10079000206830F8441F21F400710180204600F0E9
:1007A0009CF8206802F03AFAC00505D5206830F8B8
:1007B000441F21F48071018010BD00002DE9F0413B
:1007C00086B004004FF0000504D094F8E903002639
:1007D00020B108E0012006B0BDE8F08184F8E863AC
:1007E000204600F04BF8032084F8E903206802F06B
:1007F000D0F804F11001142288466846FFF792FCF5
:1008000094E80F0002F024F80021206802F019FAA1
:100810005FF0010704EB451080F8297000F8285FAD
:100820008581C670066146616D1C86610F2DF1D30E
:100830005FF0000004EB401181F8096281F80802C2
:10084000888681F80B62C1F81862C1F81C62401CEE
:10085000C1F820620F28EDD3142241466846FFF705
:1008600061FC94E80F0002F08BF884F8246084F8AF
:10087000E973206802F082F80020ACE708B5006850
:100880000B49884212D10B48C16941F40001C16192
:10089000C069002200F40000009011461420FFF708
:1008A000DBFDBDE808401420FFF7CABD08BD00000D
:1008B000005C00400010024010B504460121D0F851
:1008C0001C0401F0D5FCD4F81C04BDE8104001F074
:1008D0009EBCD0F81C0401F0B9BCD0F81C0401F097
:1008E000BBBC10B5044690F8E80301280BD00120EA
:1008F00084F8E80384F82410206802F0A4F90020AA
:1009000084F8E80310BD022010BDD0F81C2400F5C7
:100910007B71104601F0B6BC10B5044690F8E803B0
:10092000012810D0012084F8E80301462046FFF793
:10093000DFFD206802F020F8206802F062F9002054
:1009400084F8E80310BD022010BD000010B5044675
:10095000D0F81C0401F0D1FCA069002804D00348A1
:10096000016841F00601016010BD000010ED00E0DB
:100970002DE9F84305460078454CC00774D0E0697E
:1009800040F08050E061E069424E00F080500090FD
:10099000306840F480703060FFF7E0FC074604E008
:1009A000FFF7DCFCC01B642833D83068C005F7D5DE
:1009B000206A10F4407051D0A98801F4407181423E
:1009C0004CD0206A0126310491FAA1F2B2FA82F2E7
:1009D0009300314A20F440701344C3F8006491FA44
:1009E000A1F1B1FA81F102EB81010023C1F80034D9
:1009F0002062C00732D0FFF7B1FC074641F28839C8
:100A00004FF0020808E000BFFFF7A8FCC11B4945F2
:100A100002D90320BDE8F88398FAA8F1B1FA81F170
:100A200041F040014046B6EB511F01D121680BE077
:100A300090FAA0F1B1FA81F141F04001B0EB511F01
:100A400001D1216A00E0616A98FAA8F0B0FA80F05A
:100A500000F01F0206FA02F00142D5D0206A696850
:100A600020F44070084320622878800705D560682C
:100A7000A96820F44040084360602878C00605D586
:100A80006068E96820F48000084360600020C1E7E6
:100A90000010024000700040000042422DE9F04783
:100AA000DFF8708105460E46D8F8000000F0070018
:100AB000B0420CD2D8F8001021F007013143C8F839
:100AC0000010D8F8000000F00700B04277D1287875
:100AD000514C800705D56068A96820F0F0000843F4
:100AE00060602878C00759D06968012001290DD0BD
:100AF000022929D05FF0020393FAA3F2B2FA82F23C
:100B000042F02002520904D0226803E04FF400337F
:100B1000F2E7626A93FAA3F3B3FA83F303F01F03D5
:100B2000984002424BD0606820F0030008436060A8
:100B3000FFF714FC6968074641F2883001290DD09F
:100B40000229814617D025E04FF00073D4E700BF9B
:100B5000FFF704FCC11B494501D918E081466068D4
:100B6000C0F381000128F3D118E000BFFFF7F6FBC6
:100B7000C11B49450BD86068C0F381000228F5D13C
:100B80000CE000BFFFF7EAFBC11B494502D9032077
:100B9000BDE8F087606810F00C0FF3D1D8F80010B2
:100BA000404601F00701B1420BD9016821F007016D
:100BB00031430160006800F00700B04201D001201D
:100BC000E6E72878400705D56068E96820F4E0602A
:100BD000084360602878000706D56068296920F41A
:100BE000605040EAC100606000F052F86168F02295
:100BF00092FAA2F201F0F001B2FA82F2D140074A71
:100C0000515CC840064908600020FFF7C7FB002080
:100C1000BEE700000020024000100240082D00083E
:100C2000000000200148006870470000000000201C
:100C300008480949006849684FF4E06292FAA2F254
:100C400001F4E061B2FA82F2D140044A515CC8403A
:100C5000704700000000002000100240182D00081E
:100C600008480949006849684FF4605292FAA2F2B4
:100C700001F46051B2FA82F2D140044A515CC8409A
:100C8000704700000000002000100240182D0008EE
:100C900010B519A385B00FCB8DE80F001AA01B4B20
:100CA000006804905A681A4802F00C0104291DD00B
:100CB00008291BD14FF4701494FAA4F402F47011B3
:100CC000B4FA84F4E140D2031DF8011010D55A683B
:100CD0004FF4003393FAA3F302F40032B3FA83F330
:100CE000DA4004AB9A5CB0FBF2F0484305B010BDAB
:100CF00008484843FAE7000002030405060708090C
:100D00000A0B0C0D0E0F1010010200000010024023
:100D100000127A0000093D002DE9F84F04460078E2
:100D2000F74DC0074FF0010625D068687704C0F37F
:100D30008100012807D06868C0F3810002281BD118
:100D40006868C00318D597FAA7F0B0FA80F040F0B1
:100D50002000400901D0286800E0686A97FAA7F1EE
:100D6000B1FA81F101F01F0106FA01F108425ED0EB
:100D7000606800287CD05AE06068B0F5803F0BD0F6
:100D800010B1B0F5A02F11D0286820F48030286071
:100D9000286820F4802002E0286840F48030286031
:100DA000606828B3FFF7DAFA80460BE0286840F461
:100DB00080202860F0E700BFFFF7D0FAA0EB080022
:100DC000642871D897FAA7F0B0FA80F040F02000BC
:100DD000400901D0286800E0686A97FAA7F1B1FAE3
:100DE00081F101F01F0106FA01F10842E4D01EE092
:100DF000FFF7B4FA804605E0FFF7B0FAA0EB080071
:100E00006428DED897FAA7F0B0FA80F040F020000E
:100E1000400901D0286800E0686A97FAA7F1B1FAA2
:100E200081F101F01F0106FA01F10842E4D12078B6
:100E3000DFF8D08280074FF000094FF002075BD542
:100E400068684FF0F80B10F00C0F07D06868C0F31B
:100E5000810002281CD16868C00319D497FAA7F052
:100E6000B0FA80F040F02000400902D0286801E08C
:100E70008BE0686A97FAA7F1B1FA81F101F01F01DE
:100E800006FA01F108422CD0206901287DD128E022
:100E9000206990B396FAA6F0B0FA80F048F8206086
:100EA000FFF75CFA824607E011E100BFFFF756FA50
:100EB000A0EB0A00022884D897FAA7F0B0FA80F0D5
:100EC00040F02000400901D0286800E0686A97FAE5
:100ED000A7F1B1FA81F101F01F0106FA01F1084210
:100EE000E4D028689BFAABF26169B2FA82F220F092
:100EF000F80091400843286025E0FFE796FAA6F144
:100F0000B1FA81F148F82190FFF728FA824605E00E
:100F1000FFF724FAA0EB0A000228CCD897FAA7F032
:100F2000B0FA80F040F02000400901D0286800E0CD
:100F3000686A97FAA7F1B1FA81F101F01F0106FA88
:100F400001F10842E4D1207800076ED5A069B8B35A
:100F500096FAA6F0B0FA80F008EB8000C0F8806442
:100F6000FFF7FCF9824605E0FFF7F8F9A0EB0A006D
:100F70000228A0D897FAA7F0B0FA80F040F06000FD
:100F8000B6EB501F02D128680CE062E197FAA7F097
:100F9000B0FA80F040F06000B7EB501F01D1286A32
:100FA00000E0686A97FAA7F1B1FA81F101F01F0138
:100FB00006FA01F21042D7D00120FFF7E0F834E042
:100FC000FFE796FAA6F1B1FA81F108EB8101C1F8C9
:100FD0008094FFF7C3F9824606E000BFFFF7BEF931
:100FE000A0EB0A00022872D897FAA7F0B0FA80F0B6
:100FF00040F06000B6EB501F01D128680BE097FA73
:10100000A7F0B0FA80F040F06000B7EB501F01D1BC
:10101000286A00E0686A97FAA7F1B1FA81F101F055
:101020001F0106FA01F21042D8D12078400765D599
:10103000E86940F08050E861E869DFF8CCB000F082
:1010400080500090DBF8001041F48071CBF8001064
:10105000FFF784F9824605E0FFF780F9A0EB0A006C
:10106000642834D8DBF80000C005F5D5E068012815
:101070000AD008B1052813D0286A20F001002862A0
:10108000286A20F0040002E0286A40F0010028628B
:10109000E06841F2883B90B3FFF760F982460BE0CD
:1010A000286A40F004002862EEE700BFFFF756F917
:1010B000A0EB0A0159450AD897FAA7F0B0FA80F0D8
:1010C00040F04000B6EB501F02D128680CE0A3E0CE
:1010D00097FAA7F0B0FA80F040F04000B7EB501F4D
:1010E00001D1286A00E0686A97FAA7F1B1FA81F1A4
:1010F00001F01F0206FA02F10842D7D031E005E004
:10110000001002400000424200700040FFF726F944
:10111000824605E0FFF722F9A0EB0A0159457BD88A
:1011200097FAA7F0B0FA80F040F04000B6EB501FFD
:1011300001D128680BE097FAA7F0B0FA80F040F0F0
:101140004000B7EB501F01D1286A00E0686A97FAA7
:10115000A7F1B1FA81F101F01F0206FA02F108428B
:10116000D8D1E06980B36968C1F38101022970D0E8
:101170004FF080714F000228484609D091FAA1F142
:10118000B1FA81F148F82100FFF7E8F8044669E078
:101190008A4691FAA1F1B1FA81F1C14648F82100DD
:1011A000FFF7DCF8804605E0FFF7D8F8A0EB080071
:1011B000022854D897FAA7F0B0FA80F040F0200047
:1011C000400902D0286801E061E0686A97FAA7F157
:1011D000B1FA81F101F01F0106FA01F10842E3D1F1
:1011E000206AB0F5803F05D16868A16820F400301E
:1011F00008436860D4E908010843696821F4741160
:10120000084368609AFAAAF0B0FA80F049F82060C2
:10121000FFF7A4F8044606E021E000BFFFF79EF8C0
:10122000001B02281BD897FAA7F0B0FA80F040F014
:101230002000400901D0286800E0686A97FAA7F109
:10124000B1FA81F101F01F0106FA01F10842E5D07F
:101250001DE01EE0FFF782F8001B022802D90320E0
:10126000BDE8F88F97FAA7F0B0FA80F040F02000C0
:10127000400901D0286800E0686A97FAA7F1B1FA3E
:1012800081F101F01F0106FA01F10842E2D10020CC
:10129000E6E70120E4E7000010B5040003D094F86D
:1012A000510010B104E0012010BD204600F038F8D4
:1012B000022084F851002068016821F0400101609B
:1012C000D4E901010843D4E90312114308436169D9
:1012D0000843218B01F400710843E1690843216A46
:1012E0000843A16A084321680860A069042101EA53
:1012F0001040616A0843216848602168E06A08611B
:101300002068C16921F40061C161044900200870AE
:101310006065012084F85100002010BD0400002009
:1013200010B50068114986B088421CD11048816907
:1013300041F48051816180690E4C00F4805004902A
:10134000B0200090022001900320039069462046BF
:10135000FEF720FF00214020CDE9000102916946FF
:101360002046FEF717FF06B010BD00000030014018
:1013700000100240000801404FF0E02104280869F5
:1013800003D020F004000861704740F00400FAE741
:10139000704710B5401EB0F1807F01D3012010BD11
:1013A0004FF0E02460610F21601700F0F7F8002093
:1013B000A06107202061002010BD10B5FFF7E8FFF5
:1013C00010BD70B5040004D094F83900002510B1A8
:1013D00006E0012070BD84F83850204600F020F867
:1013E000022084F839002068C16821F40051C160EE
:1013F000204600F0FDFA2068016921F49041016166
:101400002068416921F02A0141612068C16841F4E6
:101410000051C160E563012084F83900002070BDEF
:1014200010B50068114986B088421DD11048816905
:1014300041F48041816180690E4C00F48040049049
:101440004FF4007000900220019003200390694641
:101450002046FEF79FFE00212015CDE900010291F4
:1014600069462046FEF796FE06B010BD00380140E2
:101470000010024000080140FEE7000070B523485C
:1014800086B0816941F010018161816901F010012C
:101490000491816941F020018161816901F020019D
:1014A0000491816941F004018161816901F00401C5
:1014B0000491816941F0080181618069022600F090
:1014C00008000490009612480024CDE90104694602
:1014D0001048FEF75FFE4FF4704501200396CDE9FA
:1014E00000500D4E69463046FEF754FEA811CDE976
:1014F0000004694609480294FEF74CFE0022294682
:101500003046FEF725FF06B070BD00000010024017
:101510000000111000080140000C014000100140C3
:101520000E4810B50C4901604FF4827141600021F2
:101530008160C1604FF480220161C0E90512302250
:10154000C0E90721416281620A21C162FFF7A4FE5E
:10155000002800D0FEE710BD00300140F40000205C
:1015600010B500220849094800F04AFD084907481B
:1015700000F0E7FE0749054800F065FBBDE81040B4
:10158000024800F02BBF00000C000020C80700201C
:101590007400002064000020FEE770470907090E70
:1015A000002806DA00F00F0000F1E02080F8141D9A
:1015B000704700F1E02080F8001470472DE9FC5FCF
:1015C0004FF000080446ADF80480ADF8008048F6FE
:1015D0000F7B4FF002094FF4806692E1BDF80410D2
:1015E00011F00F072BD030F82710ADF80010BDF820
:1015F0000010090478D530F8272040F68F710A4092
:1016000020F8272004EB471595F8120205F502751E
:101610000028206869D0297830F8212052047DD52F
:10162000B0F8503009EBC101194406EB4101415AB1
:10163000C1F309015FEA010A71D0EA88D0E0BDF880
:101640000410C9062AD4018801EA0B010180206830
:1016500004F12805B0F850202B7809EBC3011144A0
:1016600006EB4101405AC0F309006064E16B084495
:10167000E06300212046FEF73CFF94F82400002898
:10168000ABD0A8690028A8D194F82400216840F0C4
:101690008000A1F84C0084F8248032E1018804F530
:1016A0000275ADF80010BDF8001009051ED5B0F8A0
:1016B00050302978062202EBC101194406EB4101A2
:1016C000405A04F57B71C0F30903EB61AA882068D6
:1016D00001F0A8FA2068018840F68F72114001805D
:1016E0002046FFF712F90CE1A0E055E0BDF800102C
:1016F0000904D2D5028840F68F710A400280206822
:10170000B0F850302978062202EBC101194406EBEB
:101710004101405A83059B0DEB6101E051E063E01C
:1017200008D0AA886969206801F07CFAE9696869CB
:101730000844686100212046FEF7E2FE2068B0F808
:101740005010891D06EB4101014428693E280CD93F
:10175000C0F34F12C00601D1521E92B24FF6FF7075
:1017600000EA822040F4004009E0C0F34F02C007C5
:1017700001D0521C92B24FF6FF7000EA822008603E
:10178000216808884BF68F72104080F4405048F270
:10179000800210430880B4E0B0F850202B78062176
:1017A00001EBC301114406EB4101415AC1F30901A8
:1017B0005FEA010A24D0AA885346696901F032FA27
:1017C0001EE0B0F85020062303EBC101114406EBE4
:1017D0004101415AC1F309015FEA010A04D02A8993
:1017E0005346696901F01EFA2978206830F82130E3
:1017F00048F68F72134048F2C002134320F821309C
:10180000E96901EB0A00E861696901EB0A026A61B2
:10181000AB6913B12869504504D929782046FEF7F1
:101820006FFE03E029782046FEF7D8FEBDF80000E1
:10183000000666D5206804EB471530F8271001EA4A
:101840000B0120F8271095F8320028350028206871
:1018500012D0297830F82120B0F8503052061ED529
:1018600009EBC101194406EB4101405A83059B0D68
:10187000EB6124D0EA881EE0B0F850302A7809EBFA
:10188000C201194406EB4101405A83059B0DEB61EF
:1018900021D0AA886969206801F0DBF91BE00622E3
:1018A00002EBC101194406EB4101405A83059B0D2F
:1018B000EB6104D02A896969206801F0CAF92978A6
:1018C000206830F8212048F68F731A404CF28003CC
:1018D0001A4320F821202068B0F850202B7809EB1B
:1018E000C301114406EB4101405AC0F30900E8610D
:1018F00069690A186A612978AB69204663B1FEF705
:10190000B8FE2068B0F84410ADF8041009043FF5A3
:1019100065AE0020BDE8FC9FFEF7EBFDF1E77047E8
:10192000704710B5FEF720FDBDE81040FFF745BD3C
:1019300030B593B00120009000040024CDE90104EB
:101940000225CDE907504FF4E01009906846FFF7F3
:10195000E3F900B1FEE70F20CDE90A054FF48060FE
:10196000CDE90C4002210AA80E94FFF797F800B1C8
:10197000FEE710200F9012940FA8FEF7F9FF00B1B8
:10198000FEE7FFF74FF94FF47A71B0FBF1F0FFF784
:1019900000FD0420FFF7F0FC00221146501EFEF768
:1019A0005BFD13B030BD00000D48016841F001013E
:1019B000016041680B4A1140416001680A4A1140C8
:1019C0000160016821F480210160416821F4FE0179
:1019D00041604FF41F0181600449C00308607047F3
:1019E000001002400000FFF8FFFFF6FE08ED00E0E7
:1019F0002DE9F041044600680169E26821F4405194
:101A0000114301612169A0680843616908432168A5
:101A1000CA6841F20C639A430243CA602068416974
:101A2000A26921F44071114341614C492068642549
:101A3000322688423CD1FFF713F900EBC00101EBDD
:101A4000001061688900B0FBF1F7FFF709F900EBBE
:101A5000C00101EB00106168B0468900B0FBF1F0F5
:101A6000B0FBF5F06FF01801484307EB800106EB7F
:101A70000110B0FBF5F000F0F006FFF7F1F800EB15
:101A8000C00101EB001061688900B0FBF1F0B0FB10
:101A9000F5F006EB0016FFF7E3F800EBC00101EBF1
:101AA000001061688900B0FBF1F7FFF7D9F83BE05F
:101AB000FFF7BEF800EBC00101EB00106168890080
:101AC000B0FBF1F7FFF7B4F800EBC00101EB001039
:101AD0006168B0468900B0FBF1F0B0FBF5F06FF043
:101AE0001801484307EB800106EB0110B0FBF5F04D
:101AF00000F0F006FFF79CF800EBC00101EB0010CE
:101B000061688900B0FBF1F0B0FBF5F006EB001660
:101B1000FFF78EF800EBC00101EB0010616889004F
:101B2000B0FBF1F7FFF784F800EBC00101EB001008
:101B300061688900B0FBF1F0B0FBF5F06FF01801BF
:101B4000484307EB800108EB0110B0FBF5F021687A
:101B500000F00F0030448860BDE8F081003801409B
:101B6000D0F81802002101750846704770B5054687
:101B7000D0F81842D5F81C226178D26820789047B6
:101B8000022322460121284600F03AFB002070BDC6
:101B900010B50446812100F04FFA0121204600F0E3
:101BA0004BFAD4F8180250B1D4F81C0204F50674AC
:101BB00080688047206800F017FD0020206000202A
:101BC00010BD10B5D0F818422169012908D1D0F80C
:101BD0001C0223786178C268184690470020206173
:101BE000002010BD2921018000487047B00000206E
:101BF0000A21018000487047E800002070B50646C1
:101C0000002502230322812100F0F0FA022303229F
:101C10000121304600F0EAFA182000F0E7FCC6F88F
:101C2000180270B1044600202075D6F81C024068E6
:101C30008047022322460121304600F0E1FA28467F
:101C400070BD0125FBE702460220002902D00020DA
:101C5000C2F81C12704710B5134690F8FC41D0F83A
:101C60001822032C07D1147D2CB9012414750A46BF
:101C7000812100F04BFB002010BD000070B5002258
:101C80000D78D0F81832144615F0600525D0202DB7
:101C90004BD14A78921E0A2A1BD2DFE802F00F08C5
:101CA0001A1A1A1A1A130B05887858603DE0012297
:101CB000191D31E04888000A986036E0012203F1DE
:101CC000080129E001221A618A79194600F054F8C6
:101CD0002BE000F046F8022070BD4D78062D04D0B0
:101CE0000A2D1CD00B2D20D11DE04B882225B5EBF1
:101CF000132F07D1CA88212A00D92122D0F81C121B
:101D00000C6808E02125B5EB132F04D1CA88084CD4
:101D1000092A00D90922214600F048F805E00122ED
:101D200003F10C01F8E78878D860002070BD00004E
:101D3000DC00002010B5D0F8142252689047002033
:101D400010BD134610B50A46002100F059FA0020D4
:101D500010BD134610B50A46002100F0D7FA002046
:101D600010BD10B50446802100F0B9FA2046BDE848
:101D70001040002100F0B3BA10B50323C0F80821C9
:101D8000C0F8F431C0F80C2113460A46002100F0D7
:101D900037FA002010BD10B505210023C0F8F4115A
:101DA0001A46194600F02CFA002010BD10B5022387
:101DB0008261C0F8F431C26113460A46002100F086
:101DC000A5FA002010BD10B504210023C0F8F411BD
:101DD0001A46194600F09AFA002010BD10B50A46BE
:101DE000024903A000F0E9F8004810BDC805002032
:101DF000437573746F6D2048494420436F6E666964
:101E00006700000012200880004870472C00002066
:101E100010B50A46024903A000F0CFF8004810BDF3
:101E2000C8050020437573746F6D204849442049EC
:101E30006E746572666163650000000004200880AE
:101E4000004870472800002010B50A46024903A048
:101E500000F0B3F8004810BDC805002053544D6988
:101E600063726F656C656374726F6E696373000093
:101E700010B50A46024903A000F09FF8004810BDC3
:101E8000C805002053544D333220437573746F6D71
:101E90002048756D616E20696E7465726661636558
:101EA0000000000010B50A46024903A000F085F8C2
:101EB000004810BDC80500203030303030303030A0
:101EC0003030314100000000F8B5044648880D4626
:101ED000010A082954D2DFE801F0530409175353CB
:101EE0004951D4F81012207C0A6819E0207C02269F
:101EF0000028D4F8140205D0C16A68468847014614
:101F000046704AE0816AF8E7C1B2062926D2DFE8C6
:101F100001F0030A0F14191ED4F81012207C4A682D
:101F20006946904718E0D4F81012207C8A68F7E7D9
:101F3000D4F81012207CCA68F2E7D4F81012207C82
:101F40000A69EDE7D4F81012207C4A69E8E7D4F872
:101F50001012207C8A69E3E701461EE0C1B2D4F882
:101F600014026A46836B20469847F5E7207C38B90F
:101F7000D4F81402416B68468847EDE7207C20B115
:101F800029462046FFF7EDFEF8BDD4F81402016B98
:101F900068468847014607204870BDF800000028C1
:101FA000F2D0EA88002AEFD0824200D90246ADF88A
:101FB00000202046FFF7FAFEF8BD70B50023002888
:101FC0001DD00446002502E06D1CEDB2641C26788D
:101FD000002EF9D1022404EB45041480CC545B1C80
:101FE0000322CA5400245B1C06E0CA545B1CDAB20C
:101FF0008C54521CD3B2401C0278002AF5D170BD1B
:1020000010B580B1D0F8143213B10023C0F81432E7
:1020100009B1C0F81012012180F8FC11027000F023
:102020009DF8002010BD022010BD10B5D0F8200290
:10203000FEF78EFA002010BD10B5D0F82002FEF792
:1020400067FA002010BD2DE9F0411746044641B162
:10205000D4F8140242698AB394F8FC01032842D0F0
:1020600043E0D4F8F411002504F11400022933D11F
:10207000D0E902639E4207D9F31A83609AB23946C7
:102080002046FFF766FE12E04068B0FBF3F103FB69
:102090001101A1B9984212D3D4F8F81188420ED296
:1020A000002211462046FFF754FEC4F8F8510023E1
:1020B0001A461946204600F0A3F80DE012E0D4F8C5
:1020C0001402C16829B194F8FC01032801D120460B
:1020D00088472046FFF75FFE94F80002012804D1EC
:1020E00084F8005201E0204690470020BDE8F081CE
:1020F00070B51546044641B1D4F8140282693AB36A
:1021000094F8FC01032824D025E0D4F8F41104F558
:10211000827003291FD1D0E902218A420BD9531AB8
:1021200083600846834200D303469AB2294620467C
:10213000FFF707FE0FE0D4F81402016929B194F803
:10214000FC01032801D1204688472046FFF73BFECB
:1021500001E020469047002070BD000010B51A49EC
:102160000446C1F81C04C0F8201218480860082072
:102170004860022088600320C86000208861C86130
:1021800008620846FEF71AFB08B1FDF7F7FF0022C8
:10219000D4F820021823114604F50874FEF78EF9CE
:1021A0005823002280212068FEF788F99823002216
:1021B00081212068FEF782F9D823002201212068BE
:1021C000FEF77CF9002010BDA8010020005C004053
:1021D0000A06D0F8200201F07F0100EB411002D581
:1021E00090F82A00704790F80A02704710B51C4614
:1021F0001346D0F820022246FEF7CEF9002010BD8B
:1022000010B5D0F82002FEF7E9F9002010BD70B536
:102210000022044640231146FFF7E8FF40252B46E5
:10222000002280212046C4F81051FFF7DFFF012073
:10223000256284F8FC01D4F8180228B1D4F81402FD
:102240002179426820469047002070BD90F8FD112A
:1022500080F8FC110020704710B590F8FC1103299C
:1022600004D1D0F81412C96901B18847002010BD0B
:1022700001740020704710B5D0F82002FEF731FB42
:10228000002010BD70B5044600F50270054600F050
:1022900044F80120C4F8F401B4F80E02C4F8F801BF
:1022A00094F8080210F01F010AD001290DD002296C
:1022B00010D000F08001204600F011F8002070BD21
:1022C0002946204600F08FF8F8E72946204600F01E
:1022D00071F9F3E72946204600F0FEF8EEE710B565
:1022E000D0F82002FEF79AF9002010BD10B5D0F802
:1022F0002002FEF711FB002010BD90F8FC1180F8C1
:10230000FD11042180F8FC110020704710B5D0F8B1
:102310002002FEF7AEF9002010BD0A7802704A785C
:1023200042708A78CB7802EB032242800A794B799B
:1023300002EB032282808A79C97902EB0121C180F4
:1023400070470246002011B1C2F8141270470220F3
:10235000704710B5D0F8142202241AB112689047C1
:1023600000B90024204610BD70B50E461A4D89787C
:1023700004462970012928D894F8FC01022802D0CB
:10238000032822D105E099B10320616084F8FC01A3
:1023900009E091B1606888420AD0C1B22046FFF7D7
:1023A000C9FC297861602046FFF7D3FF02280CD0D2
:1023B0002046BDE87040FFF706BD022084F8FC010E
:1023C00020466160FFF7B6FCF2E731462046BDE8E3
:1023D0007040FFF7C6BC0000F200002010B5FFF708
:1023E00085FF002010BD2DE9F04100264B78012526
:1023F00032460A2B43D2DFE803F03C5842514208F0
:1024000005422A27FFF760FD63E004468888C8B9C3
:10241000C888B8B9887800F07F0794F8FC010328D1
:1024200010D084F8FE7139462046FFF724FF20467D
:10243000FFF7C9FC1FB1022084F8FC0149E084F8D1
:10244000FC5146E020461AE0FFF78EFF41E0CB88C2
:10245000012B14D190F8FC31022B02D0032B0ED1AA
:1024600004E08260012200F1080114E00122011D54
:1024700011E090F8FC21022A04D0032A02D0FFF7D1
:1024800070FC26E0C560D0F8041209B10321C160D8
:10249000022200F10C01FFF789FC1AE0044648888B
:1024A000012816D1C4F804520BE0044690F8FC0150
:1024B000022801D00328C5D14888012809D1C4F8D1
:1024C0000422D4F814028268204690472046FFF781
:1024D0007AFC3046BDE8F08170B50D460446287898
:1024E00000260979C0F34110012806D06878A0B30E
:1024F00001281FD003283FD107E0D4F81402294651
:10250000826820469047002070BD94F8FC010228A4
:1025100017D003282CD1688828B921B1802902D08E
:102520002046FFF7DCFED4F81402294682682046D4
:10253000904713E094F8FC01022802D0032817D139
:1025400003E0C9B180291BD116E06888A0B948060C
:1025500004D02046FFF769FDE5E703E02046FFF7DA
:1025600032FC09E094F8FC01022807D003280BD0C4
:1025700029462046FFF7F5FB304670BD4806FBD0E4
:102580002046FFF7ACFEF7E7080601F07F0004EBFA
:10259000001501D5143501E005F582752046FFF7D9
:1025A00017FE00B101202860022229462046FFF7CD
:1025B000FDFBE1E770B5054690F8FC010C460328E9
:1025C0000DD1207901280AD8D5F81402826828464E
:1025D0009047E08830B92846FFF7F5FB02E028462F
:1025E000FFF7BFFB002070BD704700000048704738
:1025F0008C0100202DE9F047CC780A7848F68F133B
:1026000034B1012C6DD0022C08D0032C13D10BE077
:1026100030F822401C4044F400730AE030F82240B5
:102620001C4020F8224006E030F822401C4044F4D0
:10263000C06320F822300C7830F8245048F68F72AE
:10264000154048F280031D43254320F824508D7A1D
:1026500048F6BF7904274BF68F7A48F2C0044CF253
:102660008006EDB30D7830F825C048F280180CEAEA
:10267000020C4CEA080C20F825C0CD88B0F850C0F8
:1026800025F0010591F800800CEBC80C00EB4C0C18
:10269000CCF800540D89B0F850C025F0010591F830
:1026A000008007EBC807674400EB4707C7F80054F2
:1026B0004D78002D0D7830F825704FEA47477DD0D2
:1026C000002F05DA30F825701740374320F82570C1
:1026D0000D7830F825707F0608D530F8257001E0B8
:1026E00024E01DE01740274320F825700C7830F8CF
:1026F00024501540354320F824500C7830F824201D
:1027000002EA09021A4320F824200A7830F822103D
:1027100001EA0A01194320F822100020BDE8F087E1
:1027200030F822401C4044F4806382E74D78F5B1D4
:102730008D88B0F8506025F001050F7806EBC706CC
:1027400000EB4606C6F800540D7830F82560760692
:1027500005D530F825601640264320F825600A7814
:1027600030F8221001EA090181F02001D2E78C88BB
:10277000B0F8505024F0010491F800C007EBCC07EA
:102780003D4400EB4505C5F80044B0F850400D78D5
:10279000062707EBC5052C4400EB44070C694FF6F0
:1027A000FF7C07F580673E2C0CD9C4F34F15E40677
:1027B00001D16D1EADB20CEA852400E01EE044F4A8
:1027C000004407E0C4F34F05E40701D06D1CADB22F
:1027D0000CEA85243C600C7830F824506D0405D553
:1027E00030F824501540354320F824500A7830F84A
:1027F000221001EA0A0181F440518BE7002F05DA2B
:1028000030F825701740374320F825700D7830F8E0
:102810002560760605D530F825601640264320F859
:1028200025600E7830F826501540254320F82650B4
:102830000C7830F8242002EA0A0282F440521A434B
:1028400020F824200A7830F8221001EA090161E713
:10285000002070472DE9F04391F80A8091F801C0FB
:102860000A7848F6BF774BF68F7948F2800348F232
:10287000C0054CF2800648F68F74B8F1000F2ED0D8
:10288000BCF1000F30F822C04FEA4C4C4ED0BCF1E6
:10289000000F07DA30F822C00CEA040C4CEA060CF0
:1028A00020F822C00A7830F822C05FEA4C6C07D5C5
:1028B00030F822C00CEA040C4CEA050C20F822C0C7
:1028C0000A7830F822502540354320F822500C7801
:1028D00030F824203A401A4320F824201BE0BCF1B1
:1028E000000F0ED030F82260760605D530F8226051
:1028F00026402E4320F822600A7830F82210394012
:102900000EE030F822506D0405D530F822502540F5
:10291000354320F822500A7830F8221001EA0901E4
:10292000194320F822100020BDE8F083BCF1000F0D
:1029300007DA30F822C00CEA040C4CEA060C20F846
:1029400022C00A7830F82260760605D530F8226079
:1029500026402E4320F822600E7830F826202240B0
:102960002A4320F826200C7830F8242002EA0902B5
:102970001A4320F82420BFE700207047002070474A
:10298000012120F8401F002101808180018208463A
:10299000704730F8401F21F43D410180002070470E
:1029A0000020704730B54D780A78002D48F68F74B6
:1029B00030F8225048F2800312D06D0607D530F867
:1029C0002250254048F2C004254320F822500A78BE
:1029D00030F8221048F6BF74214081F0300111E038
:1029E0006D0407D530F8225025404CF28004254371
:1029F00020F822500A7830F822104BF68F742140CC
:102A000081F44051194320F82210002030BD10B548
:102A10000A7848F2800352B14978002930F8221030
:102A200010D048F6BF74214081F010010FE00188FA
:102A30004BF6BF72114081F4805181F010011943AF
:102A4000018007E04BF68F74214081F480511943D7
:102A500020F82210002010BD2DE9F0410D46064659
:102A6000896995F801C00023AA7A022728690C46D3
:102A700048F28008BCF1010F05D0814252D90446CA
:102A8000081AA8614FE0814203D90446081AA861D8
:102A900000E0AB617AB1287836F820104906B6F824
:102AA000501007EBC000084406EB4000C0F800449B
:102AB00012D52A8911E0A3B2AA883046696900F0CC
:102AC000C8F8B6F85000297807EBC101084406EBB6
:102AD0004000C0F800441CE0EA88A3B230466969AF
:102AE00000F0B7F8687848F68F7110B1012807D068
:102AF0000FE0287836F820200A4048F2C00105E0AF
:102B0000287836F820200A404CF280010A4326F843
:102B10002020297836F8210048F6BF72104080F056
:102B2000300067E0AB6106234FF6FF701AB1BCF1CD
:102B3000000F1BD056E0B6F850102A783E2C03EB5D
:102B4000C202114406EB410202F5806239D9C4F396
:102B50004F11E30632D000BF00EA812040F400406C
:102B600002E000BF00EA812010603BE0B6F85010A0
:102B70002A783E2C07EBC202114406EB410202F513
:102B800080620BD9C4F34F115FEAC46C01D1491EB6
:102B900089B200EA812141F4004108E0C4F34F0109
:102BA0005FEAC47C01D0491C89B200EA812111602E
:102BB00069780029BFD001290AD013E0491E89B2E3
:102BC000CAE7C4F34F01E307CCD0491C89B2C9E777
:102BD000B6F85000297807EBC101084406EB400025
:102BE000C0F80044297836F821004BF68F72104067
:102BF00080F4405040EA080026F821000020BDE89B
:102C0000F08130F8401F41F43D41018000207047C1
:102C10000148FDF74DBD0000A8010020B0F84400B8
:102C2000704700005B1C00EB42005B0800F5806011
:102C300006D000BF30F8042B21F8022B5B1EF9D11F
:102C400070470020704711B98021A0F84C10002077
:102C5000704710B55B1C00EB42005B0800F580601C
:102C600009D011F8012B5B1E11F8014B42EA042236
:102C700020F8042BF5D110BDFEE702E008C8121FB2
:102C800008C1002AFAD170477047002001E001C155
:102C9000121F002AFBD170470EB515A207CA8DE896
:102CA0000700FDF769FBFEF743FEFEF7E7FBFEF7C3
:102CB00037FC134811490C2201604FF4E1314160A7
:102CC00000218160C160C0E904128161C161FEF729
:102CD00078FB00B1FEE7FEF743FC4FF4FA744122A3
:102CE00069460848FEF7B7FF2046FDF748FAF6E7C1
:102CF00048656C6C6F2C484944217E0000380140C7
:102D00004C010020C8070020000000000000000067
:102D10000102030406070809000000000102030481
:102D2000402D000800000020F40000007A2C00086C
:102D3000342E0008F4000020FC0C00008A2C00084F
:102D400000A24A040000000000000000051E000868
:102D50003D1E0008491E0008711E0008A51E00083F
:102D6000DD1D0008111E0008040309041201000201
:102D700000000040830450570002010203010000DC
:102D8000058C0901A101090315002600FF750895AE
:102D9000408102090415002600FF75089540910244
:102DA000C000000040000020730100086F0100080F
:102DB00077010008FD1B0008911B00087D1C00081E
:102DC00000000000C31B0008611B00086D1B000809
:102DD000000000000000000000000000E51B0008EB
:102DE000E51B0008E51B0008F11B000800000000BF
:102DF00009022900010100C0320904000002030099
:102E000000000921110100012221000705810302B0
:102E10000020070501030200200000000921110124
:102E200000012221000000000A060002000000400C
:042E3000010000009D
:04000005080000ED02
:00000001FF
