:020000040800F2
:100000005006002001010008090100080B0100084A
:100010000D0100080F010008110100080000000098
:1000200000000000000000000000000013010008B4
:100030001501000800000000170100081901000860
:100040001B0100081B0100081B0100081B01000820
:100050001B0100081B0100081B0100081B01000810
:100060001B0100081B010008AB0400081B0100086D
:100070001B0100081B0100081B0100081B010008F0
:100080001B0100081B0100081B0100081B010008E0
:100090001B0100081B0100081B0100081B010008D0
:1000A0001B0100081B0100081B0100081B010008C0
:1000B0001B0100081B0100081B0100081B010008B0
:1000C0001B0100081B0100081B0100081B010008A0
:1000D0001B0100081B0100081B0100081B01000890
:1000E0001B0100081B0100081B010008DFF80CD0F1
:1000F00001F01EFE004800471703000850060020CC
:100100000648804706480047FEE7FEE7FEE7FEE7B1
:10011000FEE7FEE7FEE7FEE7FEE7FEE7CB1B000893
:10012000ED00000808B501213C2000F0F5FF4FF676
:10013000FF70ADF8000028208DF8030069461948CB
:1001400000F02EFD4FF6FF70ADF8000028208DF86E
:1001500003006946144800F023FD4FF6FF70ADF828
:10016000000028208DF803006946104800F018FDB3
:100170004FF6FF70ADF8000028208DF803006946A7
:100180000B4800F00DFD0121042000F0C5FF082000
:10019000ADF8000010208DF803006946014800F01A
:1001A000FFFC08BD00080140000C014000100140A8
:1001B0000014014000E0401E0028FCD1704708B543
:1001C0000121082000F0A8FF4FF44050ADF80000D6
:1001D00010208DF8030001208DF802006946D148F7
:1001E00000F0DEFC4FF44040ADF8000048208DF8F0
:1001F00003006946CB4800F0D3FC08BD00B587B0CA
:100200000121042000F088FF4FF40070ADF81800C1
:1002100018208DF81B0003208DF81A0006A9C2488B
:1002200000F0BEFC4FF48060ADF8180048208DF857
:100230001B0006A9BC4800F0B3FC0121880300F0B4
:100240006BFF0020ADF80000ADF802004FF4007025
:10025000ADF804000020ADF806006946B34801F08F
:1002600077F802A801F068F8002240F66F71AF48F5
:1002700001F091F84FF4E13002900121AB4801F018
:100280007EF802A9A94800F0EEFF07B000BD10B546
:1002900000F0D4FD4FF4803000F0F0FD00BF00F01E
:1002A0002CFE0028FBD0002000F05CFE4FF48011F3
:1002B0004FF4403000F04AFE012000F053FE0220CF
:1002C00000F053FE00BF00F059FE0828FBD10020CB
:1002D00000F059FE4FF4A06000F067FE4FF4A060FC
:1002E00000F05AFE012000F077FE4FF4004000F0CD
:1002F00077FE012000F07DFE002000F093FE4FF419
:10030000807000F092FE012000F095FE0121042093
:1003100000F0F5FE10BD1CB500200090019000BF5C
:10032000012001F0B7FE82490860FF2009680870CB
:10033000012001F0AFFE7F490860002009680870C5
:10034000012001F0A7FE7C490860002009680870C0
:10035000FFF79DFFFFF7E6FEFFF750FF77A001F0E4
:1003600019FD00F080F97CA001F014FD00F0D9F92E
:1003700080A001F00FFD00F0FDF985A001F00AFD5D
:1003800000F06DFA88A001F005FD052269460A20FB
:1003900000F0AFFA002407E01DF80420214691A0E8
:1003A00001F0F8FC601CC4B2052CF5DB002000F065
:1003B0008CFA0646314691A001F0ECFC012208219E
:1003C000594800F09EFCFF21E22000F034FAFF21A2
:1003D000E12000F030FA102001F000FB10B11020F5
:1003E00001F00DFB012208214F4800F08AFC072094
:1003F00000F06BFA06463146272000F01CFAFFF7A2
:10040000DEFE18E064264B4800680078FF280DD017
:100410004848006800785838C5B28048415D80A0DF
:1004200001F0B8FCFF20434909680870072000F07C
:100430004CFA074600BFE5E708B50121102000F09F
:100440006BFE4FF47070ADF8000048208DF803008B
:1004500002208DF802006946734800F0A1FB08BD38
:1004600070B50446704800F037FC00F47075B5F5BF
:10047000E07F09D0B5F5307F09D0B5F5507F09D0C0
:10048000B5F5607F0CD108E0012020700BE0022060
:10049000207008E00320207005E00420207002E0B6
:1004A0000020207000BF00BF70BD70B50125102076
:1004B00001F094FA10B1102001F0A1FA01220821F4
:1004C000194800F01EFC072000F0FFF9044604F074
:1004D00070040DE0072000F0F8F9064631462720A9
:1004E00000F0A9F9072000F0F0F9054605F07005C5
:1004F000002DEFD1402C0AD101220E480168612065
:1005000000F0F7F9FF21E22000F095F908E0FF2163
:10051000E22000F090F9FF21E12000F08CF900BF0B
:1005200000BF70BD000C01400008014000380140D0
:100530000000002004000020080000200A757361FC
:1005400072743120697320696E697469616C697AAB
:1005500065640D0A000000000A20535049312069EB
:100560007320696E697469616C697A6564200D0A2B
:10057000000000000A204558494E54504334206979
:100580007320636F6E666967757265640D0A00009B
:100590000A204E56494320697320636F6E6669676F
:1005A00075726564200D0A000A204E524632344CA2
:1005B000303120697320636F6E6669677572656498
:1005C00020616E64207468652052585F4144445233
:1005D0005F50302061646472657373206973203AE0
:1005E0000D0A0000200A20427468652062756620AA
:1005F00025642069732025780D0A0000200A204E0A
:1006000052463234304C3120697320434F4E4649B4
:1006100047555245442025780D0A00000021000866
:1006200025780D0A000000000010014070B5044656
:100630000D46E1B2054800F00FFF00BF402103481E
:1006400000F078FF0028F9D0204670BD0038014046
:10065000052105E000E0401E0028FCD14A1ED1B271
:100660000029F7D1704700B587B00121042000F0C0
:1006700053FD1020ADF804008DF8070001208DF81F
:10068000060001A9FE4800F08BFAA020ADF8040096
:1006900018208DF8070001208DF8060001A9F84800
:1006A00000F07EFA4020ADF8040048208DF80700E5
:1006B00001A9F34800F074FA0121080300F02CFDB1
:1006C0000021F04801F05BF802A801F042F84FF475
:1006D0008270ADF80A000820ADF814008001ADF872
:1006E000120002A9E74800F0A5FF0021E54801F04B
:1006F000A5F800227121E34801F059F80021E148F2
:1007000001F082F80021DF4801F08AF84FF480718F
:10071000DC4801F06AF80121DA4801F030F807B04E
:1007200000BD0EB50121102000F0F6FC01210846A5
:1007300000F0F2FC1020ADF8080048208DF80B0006
:1007400002A9D14800F02CFA0421022000F03EFB5F
:10075000684601F024F9102000900C208DF8050067
:1007600001208DF80600684601F0D2F8102001F053
:1007700046F90EBD08B500214FF0006001F07FF989
:100780004FF4C06001F044F90A208DF80000002009
:100790008DF8010004208DF8020001208DF803007F
:1007A000684601F03AF908BD70B5044600250026F8
:1007B0002146B44801F014F800BF8021B14801F08F
:1007C00062F80128F9D005E0681CC5B2202D01DDD2
:1007D000002070BD0121AB4801F055F80028F3D08E
:1007E00003E0A84800F0FEFFC6B20121A54801F0D1
:1007F0004AF80128F5D03046EBE72DE9F0410746ED
:100800000C46154610219E4800F079FA3846FFF74D
:10081000CBFF8046002605E014F8010BFFF7C4FF6C
:10082000701CC6B2AE42F7DB1021954800F065FAA5
:100830004046BDE8F08170B505460C461021904851
:1008400000F05DFA2846FFF7AFFF06462046FFF7A7
:10085000ABFF10218A4800F050FA304670BD10B549
:1008600001220821864800F04CFA0B212020FFF7D6
:10087000E2FF01212120FFF7DEFF01212220FFF707
:10088000DAFF03212320FFF7D6FF1A212420FFF7E8
:10089000D2FF00212520FFF7CEFF07212620FFF7FA
:1008A000CAFF01213120FFF7C6FF0522774930201A
:1008B000FFF7A3FF052276492A20FFF79EFF0022BB
:1008C00008216F4800F01DFA10BD70B504460025E0
:1008D00010216B4800F013FA2046FFF765FF002057
:1008E000FFF762FF05461021654800F006FA28462A
:1008F00070BD2DE9F04107460D46164610216048AF
:1009000000F0FDF93846FFF74FFF8046002405E070
:100910000020FFF749FF2855601CC4B2B442F7DB42
:100920001021574800F0E9F94046BDE8F08110B5C4
:1009300001220821524800F0E4F9052254492A20F6
:10094000FFF75BFF01212120FFF775FF0121222026
:10095000FFF771FF00212520FFF76DFF01213120F6
:10096000FFF769FF07212620FFF765FF0B212020F5
:10097000FFF761FF00220821414800F0C2F9822000
:10098000FFF766FE10BD2DE9F04104460026012266
:1009900008213B4800F0B5F90720FFF796FF054610
:1009A00005F040072FB1012221466120FFF7A1FF8A
:1009B000012629462720FFF73EFF00220821304864
:1009C00000F09FF93046BDE8F08170B50546642619
:1009D0000720FFF77AFF044621462EA001F0DAF93E
:1009E00004F00104214630A001F0D4F94CB100BF5D
:1009F000301EA6F10101CEB2FAD1FF21E120FFF7AE
:100A00001AFF012208211E4800F07BF905221F4928
:100A10003020FFF7F2FE05221C492A20FFF7EDFEE9
:100A200001222946A020FFF7E8FE01212120FFF73F
:100A300002FF01212220FFF7FEFE1A212420FFF7EA
:100A4000FAFE00212520FFF7F6FE07212620FFF7FA
:100A5000F2FE0A212020FFF7EEFE002208210848BE
:100A600000F04FF90720FFF730FF044613A001F014
:100A700091F900BF002CFDD0214615A02CE000000C
:100A80000008014000300140001001401021000822
:100A9000152100080A20737461747573206973202E
:100AA0003A25780D0A0000000A20746865207374E6
:100AB00061206973203A25780D0A00000A207468C5
:100AC0006520737461747573206973203A000000A7
:100AD0002025640D0A00000001F05CF970BD0000E3
:100AE00010B50446CC48844208D10121042000F00E
:100AF0002DFB0021042000F029FB46E0C74884427A
:100B000008D10121082000F021FB0021082000F07D
:100B10001DFB3AE0C248844208D10121102000F0B8
:100B200015FB0021102000F011FB2EE0BD4884428F
:100B300008D10121202000F009FB0021202000F035
:100B400005FB22E0B848844208D10121402000F092
:100B5000FDFA0021402000F0F9FA16E0B348844283
:100B600008D10121802000F0F1FA0021802000F05E
:100B7000EDFA0AE0AE48844207D10121801500F069
:100B8000E5FA0021A01500F0E1FA10BD10B5012131
:100B9000084600F0DBFA0021012000F0D7FA10BD72
:100BA0002DE9F04102460025002600200023002404
:100BB000002791F803C00CF00F0591F803C00CF06A
:100BC000100CBCF1000F03D091F802C04CEA0505EF
:100BD00091F800C0BCF1000F31D0146800202BE068
:100BE0004FF0010C0CFA00F3B1F800C00CEA030658
:100BF0009E4220D183004FF00F0C0CFA03F7BC4348
:100C000005FA03FC4CEA040491F803C0BCF1280F78
:100C100006D14FF0010C0CFA00FCC2F814C00AE037
:100C200091F803C0BCF1480F05D14FF0010C0CFA4C
:100C300000FCC2F810C0401C0828D1D31460B1F8E1
:100C400000C0BCF1FF0F34DD546800202EE000F13D
:100C5000080C4FF0010808FA0CF3B1F800C00CEAD8
:100C600003069E4221D183004FF00F0C0CFA03F7CC
:100C7000BC4305FA03FC4CEA040491F803C0BCF140
:100C8000280F05D100F1080C08FA0CF8C2F81480FE
:100C900091F803C0BCF1480F07D100F1080C4FF0E8
:100CA000010808FA0CF8C2F81080401C0828CED3BE
:100CB0005460BDE8F0814FF6FF7101800221817020
:100CC0000421C17070470246002093680B400BB1AD
:100CD000012000E0002070470146886880B270471C
:100CE00002460020D3680B400BB1012000E0002039
:100CF00070470146C86880B2704701617047416122
:100D000070470AB1016100E041617047C1607047FE
:100D10004FF480320A438261816182618269826913
:100D2000704702460020434B18684FF68073184006
:100D300040EA021008433F4B186070473E49C861C3
:100D40007047F0B50A46002300240021002500F07A
:100D50000046B6F1004F02D1364EF16901E0354E42
:100D60007168C0F3034583B200F44016B6F5401F26
:100D700008D121F070612F4E766826F070662D4FF5
:100D80007E6012E000F48016B6F5801F06D10326BF
:100D900006FA05F4A14341F0706106E0460D360104
:100DA00003FA06F6B14341F0706122B1460D3601F7
:100DB00003FA06F6314300F00046B6F1004F02D1C7
:100DC0001C4EF16101E01B4E7160F0BD30B5002298
:100DD0008B071C0F0F2303FA04F2164B08338C10F9
:100DE00053F824309343134C08348D1044F82530C5
:100DF00023468C1053F824308C07240F00FA04F497
:100E000023430C4C08348D1044F8253030BD0A497A
:100E1000DC3108607047000000080140000C014010
:100E2000001001400014014000180140001C014066
:100E3000002001400000014000002042DF4800681F
:100E400040F00100DD49086008464068DC49084080
:100E5000DA49486008460068DA490840D74908601E
:100E60000846006820F4802008600846406820F4A6
:100E7000FE0048604FF41F0088607047CF49096842
:100E800021F48031CD4A11601146096821F4802196
:100E90001160B0F5803F03D0B0F5802F0ED106E091
:100EA000C649096841F48031C44A116007E0C3496A
:100EB000096841F4A021C14A116000E000BF00BFF1
:100EC000704710B501460022002300204A11012A74
:100ED00002D1BA4C236806E0022A02D1B74C236A39
:100EE00001E0B64C636A01F01F02012494401C40EB
:100EF0000CB1012000E0002010BD38B500200090AA
:100F00000024002500BF3120FFF7DBFF05460098D5
:100F1000401C00900098B0F5A06F01D0002DF2D0D9
:100F20003120FFF7CEFF08B1012400E00024204665
:100F300038BD01460020A14A106820F0F80040EAC0
:100F4000C10010607047A049086070470246002049
:100F50009A4B586820F47C1042EA01031843974BDF
:100F60005860704798490866704701460020934AC8
:100F7000506820F003000843506070478F48406875
:100F800000F00C007047014600208C4A506820F0A9
:100F9000F00008435060704701460020874A5068BF
:100FA00020F4E06008435060704701460020834A07
:100FB000506820F4605040EAC1005060704729B189
:100FC0007E4A527A02437D4B5A7204E07B4A527A3F
:100FD00082437A4B5A7270477B49D8310860704718
:100FE00001460020754A506820F440400843506094
:100FF00070470021714A20321170704A82F8201027
:10100000012802D004280AD104E001216B4A2032D1
:10101000117005E00521694A2032117000E000BF1F
:1010200000BF70476949086070476449096A014315
:10103000624A11627047654944390860704730B5AB
:1010400000210022002400235C4D6D6805F00C0196
:1010500021B1042905D0082923D105E05C4D0560A4
:1010600022E05B4D05601FE0544D6D6805F4701281
:10107000524D6D6805F48034022505EB92421CB98F
:10108000544D554305600BE04C4D6D6805F400353B
:101090001DB1504D5543056002E04D4D554305606F
:1010A00002E04B4D056000BF00BF444D6D6805F088
:1010B000F0010909484D6B5C0568DD4045603F4D16
:1010C0006D6805F4E061090A434D6B5C4568DD40DD
:1010D00085603A4D6D6805F46051C90A3E4D6B5C00
:1010E0004568DD40C560354D6D6805F44041890BAC
:1010F0003A4D6B5CC568B5FBF3F5056130BD29B1B0
:101100002E4A526902432D4B5A6104E02B4A526920
:1011100082432A4B5A61704729B1284A9269024397
:10112000264B9A6104E0254A92698243234B9A61D7
:10113000704729B1214AD2690243204BDA6104E0A9
:101140001E4AD26982431D4BDA61704729B11B4A9E
:10115000D2680243194BDA6004E0184AD26882432D
:10116000164BDA60704729B1144A12690243134BD7
:101170001A6104E0114A12698243104B1A617047E8
:1011800012494039086070470F49C86470470B49DD
:10119000C87170470948406A40F08070074948624A
:1011A000704701460020054A92680A400AB10120B2
:1011B00000E000207047014988727047001002402B
:1011C0000000FFF8FFFFF6FE0000424280044242AA
:1011D00000127A0000093D001800002028000020BD
:1011E00010B50446FB48844209D101218803FFF76A
:1011F000ADFF00214FF48040FFF7A8FF32E0F64832
:10120000844209D101214804FFF7ADFF00214FF4CA
:101210000030FFF7A8FF25E0F048844209D1012102
:101220008804FFF7A0FF00214FF48020FFF79BFF09
:1012300018E0EB48844209D10121C804FFF793FF6D
:1012400000214FF40020FFF78EFF0BE0E5488442B9
:1012500008D101210805FFF786FF00214FF4801017
:10126000FFF781FF10BD2DE9F04786B005460E4619
:101270000024A24600BFA1460027B08900B100BFEC
:101280002F462C8A4CF6FF700440F08804432C82D1
:10129000AC894EF6F3100440B08831890843718957
:1012A00008430443AC81AC8A4FF6FF400440B08948
:1012B0000443AC8201A8FFF7C2FEC648874202D1B0
:1012C000DDF810A001E0DDF80CA0A88900F40040D2
:1012D00040B10AEBCA0000EB0A1031684900B0FBCC
:1012E000F1F807E00AEBCA0000EB0A103168890048
:1012F000B0FBF1F86420B8FBF0F004012009642190
:1013000001FB1089A88900F4004040B1322000EBB5
:10131000C900B0FBF1F000F00700044308E0322000
:1013200000EB09106421B0FBF1F000F00F00044362
:101330002C8106B0BDE8F0874FF416510160002102
:101340008180C18001810C21418100218181704710
:1013500010B502460020108A4FF2FF0318400B8898
:101360004C8823438C882343CC8823431843108222
:1013700010BD0021018041808180C180704721B172
:10138000828942F40052828104E082894DF6FF7323
:101390001A4082817047F0B50346002400260025DC
:1013A000002040F66A17B94200D100BF1846C1F3C9
:1013B000421401F01F06012707FA06F5012C01D19E
:1013C0000C3004E0022C01D1103000E014301AB1CE
:1013D00007682F43076002E00768AF430760F0BD6E
:1013E0001AB1838A0B43838202E0838A8B43838210
:1013F0007047028A4FF6F0731A400282028A0A434B
:101400000282704782894FF2FF731A40828182897B
:101410000A438281704721B1828942F002028281AF
:1014200004E082894FF6FD731A4082817047028A78
:101430004FF6DF731A400282028A0A430282704723
:1014400021B1028A42F48042028204E0028A4BF611
:10145000FF731A4002827047C1F30802828070470E
:1014600001468888C0F308007047818941F0010176
:1014700081817047028BD2B20283028B42EA012241
:1014800002837047028B02F47F420283028B0A437D
:101490000283704721B1828A42F02002828204E0F6
:1014A000828A4FF6DF731A408282704721B1828AA6
:1014B00042F01002828204E0828A4FF6EF731A40F3
:1014C0008282704721B1828A42F00802828204E05F
:1014D000828A4FF6F7731A408282704721B182895F
:1014E00042F40042828103E08289C2F30E028281CB
:1014F000704721B1828A42F40062828204E0828ACB
:101500004FF2FF731A4082827047828A4FF6FB7354
:101510001A408282828A0A438282704721B1828A7B
:1015200042F00202828204E0828A4FF6FD731A4082
:101530008282704702460020B1F5007F00D100BFD3
:1015400013880B400BB1012000E00020704701F42C
:101550000072B2F5007F00D100BFCA43028070471D
:1015600070B50246002400230025002040F66A16CC
:10157000B14200D100BFC1F3421501F01F030126A3
:1015800006FA03F3012D02D19689334006E0022DBD
:1015900002D1168A334001E0968A33400C120126AC
:1015A00006FA04F41688344013B10CB1012000E0AF
:1015B000002070BD10B50022002340F66A14A1423D
:1015C00000D100BF0A1201249440A3B2DC4304807E
:1015D00010BD0000003801400044004000480040B9
:1015E000004C00400050004010B50446BE48844204
:1015F00008D101218014FFF7A9FD0021A014FFF7F5
:10160000A5FD16E0B948844208D101210014FFF776
:10161000AAFD00212014FFF7A6FD0AE0B448844289
:1016200007D10121C013FFF79EFD0021E013FFF752
:101630009AFD10BD10B50022028802F441520B88B9
:101640004C8823438C882343CC8823430C89234331
:101650004C8923438C892343CC8923431A4302803A
:10166000838B4FF2FF74234083830B8A038210BD68
:101670002DE9F04F85B005460C464FF000090227D2
:101680004FF000084FF0010B0026B246A88B4FF236
:1016900040010840A88302202884B5F81C90A06867
:1016A000022801D100BF38E0A08810B94FF0010B2B
:1016B00001E04FF0020B8D48854200D100E000BFF1
:1016C0006846FFF7BCFCDDF800A0E088B0F5007FBD
:1016D0000AD14FEA1A2000EB80004000A168B0FB5D
:1016E000F1F0401D86B20BE04FEA4B10BAFBF0F070
:1016F00000EB80004000A168B0FBF1F0401D86B215
:101700000A20B6FBF0F606F00108A6EB0800C0F3CD
:101710004F074FF6FF7000EA0828022F01DBFF2F6A
:1017200002DD02274FF00008E08840EA0800384355
:101730002884A088A1890843618808432188084338
:1017400040F4006040EA0909A5F81C9005B0BDE826
:10175000F08F0021018041808180C1800181418121
:101760008181C18107210182704700210180418070
:101770008180C1800221816000218181704721B177
:10178000028842F04002028004E002884FF6BF73F4
:101790001A400280704721B1828B42F480628283BA
:1017A00004E0828B4FF6FF331A408283704730B5D6
:1017B000002400230C110125A540ABB21AB1858885
:1017C0001D43858002E085889D43858030BD1AB128
:1017D00083880B43838002E083888B438380704738
:1017E000818170470146888970474FF6FF629142B8
:1017F00004D0028842F48072028004E002884FF62E
:10180000FF631A400280704721B1828842F00402CF
:10181000828004E082884FF6FB731A408280704712
:1018200002884FF2FF731A40028002880A43028046
:101830007047018841F480510180704721B10288CE
:1018400042F40052028004E002884DF6FF731A4011
:101850000280704702460020012901D0108B00E071
:10186000908A70470146088A7047B1F5804F04D1CD
:10187000028842F48042028004E002884BF6FF7343
:101880001A40028070470246002013890B400BB1BA
:10189000012000E000207047CA4302817047F0B584
:1018A0000246002000240023002501F00F07012636
:1018B000BE40B4B20B1101269E40B3B2968806EA30
:1018C00003051689264016B10DB1012000E0002065
:1018D000F0BD10B5002201F00F040123A3409AB21D
:1018E000D343038110BD00000030014000380040A8
:1018F000003C0040002044490860091D0860091DA3
:101900000860091D086041483F491431086070476C
:1019100000213D498279002A3AD00A4612680368BC
:101920009A430B461A600A1D126803689A430B1DFE
:101930001A60027911440A6803681A430A60324A3D
:101940000832126803689A432F4B08331A601A1D35
:10195000126803689A432C4B0C331A604279102AA0
:101960000ED11A1F126803681A43274B08331A60F6
:101970001A1D126803681A43234B0C331A600DE0DA
:101980002149427911440A6803681A430A6005E054
:10199000027911440A6803689A430A60704700217B
:1019A000016001710C21417100218171704716495C
:1019B000103109680143144A103211607047014622
:1019C0000020114A143212680A400AB1012000E0D6
:1019D000002070470C491431086070470146002010
:1019E0000022094B1B6803EA0102074B14331B68F2
:1019F0000B4013B10AB1012000E0002070470249FA
:101A0000143108607047000000040140FFFF0F0020
:101A100031490143314A1160704770B500210023FC
:101A20000F22C47804B32D4C246804F4E064C4F598
:101A3000E064210AC1F10403CA40447804FA03F1C6
:101A40008478144021430901254C0678A155047877
:101A500004F01F050124AC4005786D11AD0005F1BF
:101A6000E025C5F8004109E0047804F01F050124D1
:101A7000AC401C4D0678761145F8264070BD1A4AD8
:101A80000A400243154B1B1F1A60704739B1134AB5
:101A9000121D12680243114B1B1D1A6006E00F4A0B
:101AA000121D126882430D4B1B1D1A6070470428DB
:101AB00008D14FF0E021096941F004014FF0E02224
:101AC000116107E04FF0E021096921F004014FF0B6
:101AD000E0221161704700000000FA050CED00E003
:101AE00000E400E080E100E080FFFF1F0CB5002073
:101AF000019000906C48006840F480306A490860AA
:101B000000BF6948006800F4003000900198401C54
:101B10000190009818B90198B0F5A06FF1D1624812
:101B2000006800F4003010B10120009001E00020B6
:101B300000900098012843D15C48006840F01000F4
:101B40005A4908600846006820F00300086008460B
:101B5000006840F0020008605348406852494860FD
:101B60000846406848600846406840F48060486025
:101B70000846406820F47C1048600846406840F4FD
:101B8000E81048600846006840F08070086000BFB8
:101B90004548006800F000700028F9D042484068CD
:101BA00020F00300404948600846406840F00200C9
:101BB000486000BF3C48406800F00C000828F9D19C
:101BC0000CBD10B5FFF792FF10BD10B53648006888
:101BD00040F0010034490860084640683449084034
:101BE0003149486008460068324908402E4908607B
:101BF0000846006820F4802008600846406820F409
:101C0000FE0048604FF41F008860FFF7DAFF4FF0D6
:101C100000602949086010BD10B500210020002295
:101C2000214B5B6803F00C0121B1042906D008297F
:101C300028D107E0214B224C236027E01F4B204C8A
:101C4000236023E0184B5B6803F47010164B5B684D
:101C500003F48032022303EB904022B9194B434333
:101C6000174C23600DE0104B5B6803F4003323B185
:101C7000144B4343124C236003E0104B4343104C7E
:101C8000236003E00D4B0E4C236000BF00BF064BEA
:101C90005B68C3F303130C4CE15C094B1B68CB403E
:101CA000074C236010BD00000010024000200240DD
:101CB0000000FFF8FFFFF6FE08ED00E000127A00DA
:101CC0002C00002000093D00300000202DE9F05FCD
:101CD0000546002092469B4688460646814640249B
:101CE0001BE0284641464746224600F042F853464C
:101CF0005A46C01A914110D311461846224600F0A8
:101D000029F82D1A67EB01084F46224601200021D1
:101D100000F020F817EB00094E41201EA4F1010449
:101D2000DFDC484631462A464346BDE8F09F0000C6
:101D3000064C074D06E0E06840F0010394E8070018
:101D400098471034AC42F6D3FEF7D4F91C210008B2
:101D50003C210008202A04DB203A00FA02F100208E
:101D600070479140C2F1200320FA03F319439040D9
:101D70007047202A04DB203A21FA02F00021704744
:101D800021FA02F3D040C2F12002914008431946E3
:101D9000704700000FB4054B10B503A9044A029820
:101DA00000F018F810BC5DF814FB00002D060008C8
:101DB0004000002002E008C8121F08C1002AFAD122
:101DC00070477047002001E001C1121F002AFBD1BB
:101DD000704700002DE9FF4F8DB09B460F4604462B
:101DE000002606E025280BD05A460F999047641C20
:101DF000761C20780028F5D111B03046BDE8F08F70
:101E00000025A8460122984900E0054314F8013F47
:101E1000203B02FA03F00842F7D120782E2817D190
:101E200014F8010F45F004052A280ED06FF02F0298
:101E30002078A0F1300109290AD808EB880102EBCB
:101E4000410100EB0108641CF2E757F8048B641CA5
:101E500020786C280DD004DC4C2812D06A2811D1CF
:101E600004E074280DD07A280CD10AE045F400155E
:101E700007E0617845F48015814202D1641C05F5C4
:101E80008015641C2278692A45D008DC002AB3D06A
:101E9000582A69D0632A10D0642A08D13BE0702AFE
:101EA00067D0732A13D0752A5CD0782A5CD010468C
:101EB0005A460F999047761CD3E017F8040B8DF81B
:101EC000000000208DF80100E946012003E057F8EA
:101ED000049B4FF0FF3069074FF0000501D40AE082
:101EE0006D1C45450DDA8542FADB19F8051000290D
:101EF000F6D106E06D1C8542FCDB19F805100029BF
:101F0000F8D12E4404E019F8010B5A460F99904776
:101F10006D1EF8D2A5E00A200021CDE90801C5F325
:101F2000025002280DD001CFC117031E71F100032A
:101F30000DDA4FF0000CD0EB0C006CEB01012D23FF
:101F400008E0FF1D27F00707F7E80201EDE72B0582
:101F500004D52B238DF8283001233BE0EB0739D043
:101F60002023F7E70A2000E010200021CDE9080136
:101F700007E01020002145F00405CDE908014FF0ED
:101F80000808C5F3025002280FD001CF00214FF0FE
:101F9000000A2B071FD5702A0DD0DDE908C38CF08D
:101FA000100C5CEA030C0CD015E0FF1D27F00707AE
:101FB000F7E80201EBE740228DF828204FF0010AF4
:101FC0000BE050EA010306D030238DF828308DF85D
:101FD000292002239A46582A04D024A20DF1200970
:101FE0000B9209E026A2F9E7DDE90823FFF76EFE70
:101FF0000B9B9B5C09F8013D50EA0102F4D1ADEB6B
:10200000090020300890680701D44FF001080899B2
:10201000884502DDA8EB010000E000208046002595
:1020200006E00AA85A46405D0F9990476D1C761C41
:102030005545F6DB04E030205A460F999047761C50
:10204000B8F10001A8F10108F5DC05E019F8010B71
:102050005A460F999047761C0899481E0890002907
:10206000F4DC641CC5E6000009280100303132337D
:1020700034353637383961626364656600000000C4
:1020800030313233343536373839414243444546AE
:1020900000000000F0B50B30154D20F007010024C2
:1020A000144A0FE003688B420BD38B4205D95E1AAA
:1020B00043184768C3E9006700E04368136002C043
:1020C00004E0021D10680028ECD12046002802D14F
:1020D000286808B10020F0BD064A07481060074A8A
:1020E000121A22F00702C0E9002401202860D7E775
:1020F000480000204400002054000020500200202E
:10210000070604050B0A0809030200010F0E0C0D57
:102110003443101001344310100100003C2100082A
:10212000000000204C000000B41D000888210008B9
:102130004C00002004060000C41D00080000000040
:10214000000000000000000000000000000000008F
:10215000000000000000000001020304010203046B
:10216000060708090204060800A24A04000000004D
:102170000000000001020304060708090000000037
:08218000000000000000000057
:04000005080000ED02
:00000001FF
