:10082A0054656D706572617475726500436F6E749C
:10083A00726F6C00565050313A202E2020560056C6
:0A084A005050323A202E20205600B4
:10071500840B0000000082040000820000008202B9
:100725000000823B0000823F0000823D00008241C4
:100735000000810A008143009413000000000000BE
:1007450000000000000000000000000000009427E9
:100755000000000000000000000000000000000094
:040765000000000090
:10092100758901D2AFD28CD2A9758C3C758AB0225F
:1008C000D3EF9400EE940040147D717C00ED1D7018
:0D08D000011CED4C70F7EF1F70E61E80E379
:0108DD0022F8
:100342007FC01209311208541209217BFF7A087901
:100352002AE4FD7F021208DE7BFF7A0879367D01EE
:100362007F041208DE7F507EC31208C07F507EC316
:100372001208C0C200784C7401F2120884C2B7C2DB
:10038200B57D057F031206947800E4F208EFF27D52
:10039200057F041206947802E4F208EFF27800E294
:1003A200FC08E2FDFF780AE2FE2413F8EFF278027D
:1003B20008E2FF74272EF8EFF2E41201197B487A63
:1003C200E179FA783F12000E1201527800EEF2083B
:1003D200EFF208E2FC08E2FDEC1201197B487AE137
:1003E20079FA783F12000E1201527802EEF208EF0B
:1003F200F2780AE2C3941450030205F97813E2FF7B
:100402007E00783BEEF208EFF2783FEEF208EFF270
:10041200E47843F27843E2FFC39414503774132F05
:10042200F8E2FF7E00C3783CE29F18E29E5005EEA0
:10043200F208EFF2D37840E29F18E29E400F784331
:10044200E22413F8E2FF783FE4F208EFF27843E2A5
:1004520004F280C0783FE2FE08E2FFC3783CE29FEC
:10046200FD18E29EFCE41201197B487AE179FA78E0
:100472003F12000E1201527806EEF208EFF218E275
:10048200FA08E2FB7C007D64FFAE021201ECEF246D
:1004920030780BF27C007D64AF03AE021201ECAA4D
:1004A20004AB057D0A7C00AF03AE021201ECEF241F
:1004B20030780CF27D0A7C00AF03AE021201ECED43
:1004C2002430780DF27BFF7A08793EE4FD7F061234
:1004D20008DE780BE2FBE4FD7F0B12090F780CE2D9
:1004E200FBE4FD7F0D12090F780DE2FBE4FD7F0EA8
:1004F20012090F7827E2FF7E00783DEEF208EFF254
:100502007841EEF208EFF2E408F27843E2FFC39496
:1005120014503774272FF8E2FF7E00C3783EE29F23
:1005220018E29E5005EEF208EFF2D37842E29F18ED
:10053200E29E400F7843E22427F8E2FF7841E4F29A
:1005420008EFF27843E204F280C07841E2FE08E26A
:10055200FFC3783EE29FFF18E29EFEC37807E29F48
:10056200FD18E29EFCE41201197B487AE179FA78DF
:100572003F12000E1201527808EEF208EFF218E272
:10058200FA08E2FB7C007D64FFAE021201ECEF246C
:1005920030780BF27C007D64AF03AE021201ECAA4C
:1005A20004AB057D0A7C00AF03AE021201ECEF241E
:1005B20030780CF27D0A7C00AF03AE021201ECED42
:1005C2002430780DF27BFF7A0879497D017F06128B
:1005D20008DE780BE2FB7D017F0B12090F780CE23B
:1005E200FB7D017F0D12090F780DE2FB7D017F0E6D
:1005F20012090FE4780AF2780AE204F27F017E001F
:060602001208C002038390
:03000B0002076E7B
:10076E00C0E0C0D075D000C000C006C007758C3C7C
:10077E00758AB07805E22401F218E23400F2E2FE46
:10078E0008E2FFD39411EE94005004C2B5801CC34E
:10079E00EF9411EE9400400DD3EF9422EE9400509E
:1007AE0004D2B580067804E4F208F2D007D006D061
:0607BE0000D0D0D0E032B3
:06087E00E24480784CF218
:10088400784CE2F580A2009290C291C2927F027EDF
:0D089400001208A1D2927F027E000208A18E
:0B094100C200EF4408784CF20208846A
:0B094C00C200EF4404784CF202088463
:10085400C292C200784C7438F2120884C200784CF8
:100864007438F21208847F04120941C200784C746F
:0A08740001F21208847F0202094C11
:1007C4007849EFF208EDF2700DC2001812087EC2EB
:1007D40000784912087E784AE2B40119C20018E28E
:1007E40044C0784CF2120884C2007849E244C078CC
:0607F4004CF21208842201
:1007FA007849EBF208EAF208E9F27849E2FB08E202
:10080A00FA08E2F91201D3FF6015D200784CF2120D
:10081A000884784BE22401F218E23400F280DB22E9
:1008DE007846EBF208EAF208E9F21207C47846E22B
:0A08EE00FB08E2FA08E2F90207FA3B
:10090F007846EBF21207C4D2007846E2784CF20236
:02091F0008844A
:1008A100D3EF9400EE94004015E4FDFC0DBD000172
:0E08B1000CBC04F8BD65F5EF1F70E51E80E27B
:0108BF002216
:0407690082440000C6
:10093100EF4291859292E4F5BDF5A20000000022FC
:1008F8007401A807088002C333D8FCF59DEF44E8CB
:07090800F5BC000000002215
:070694007846EFF208EDF2D9
:10069B00E408F20812032900000000E47848F2781D
:1006AB0047E2FF08E2C39F503E7846E2FF1208F88C
:1006BB00E5BC30E4FB75BC00AFBDE4FCFDFE784946
:1006CB00E2FB08E2F908E2FA08E2CBF8EB2FFFEEC7
:1006DB003AFEED39FDEC38FC784912031DE4F5BD0B
:1006EB007848E204F280B87847E2FFE4FCFDFEC0F4
:1006FB0004A905AA06AB077849E2FC08E2FD08E26B
:09070B00FE08E2FFD00012027D9D
:0107140022C2
:10000E00EC4D6011E8497017ED33EC3304600DE4EC
:10001E00FCFFFEFD22E933E8330470F80201BE1244
:10002E00018958046009E4CC248150062850090245
:10003E0001C82840030201C5C0E0EB4A7044B980F4
:10004E0006D0E0FB0201B4EF4E701CBD8008EBFF42
:10005E00EAFEE9FD80EBE98DF0A4FEE5F00200F783
:10006E00E9CDF9EAFEEBFFEF89F0A4FCE5F0CE89CD
:10007E00F0A42EFFE435F0CD89F0A42DFEE435F08A
:10008E008067EF4E7005BD80D780C3EF8BF0A4ACB8
:10009E00F0EE8BF0A42CFCE435F0F8EF8AF0A42CF3
:1000AE00E5F038FCE433CB8DF0A42CFCE5F03BF806
:1000BE00EE8AF0A42CFCE5F038F8E433CF89F0A4F6
:1000CE002CFCE5F038CF3400CE89F0A42FFFE5F0FC
:1000DE003EFEE433C98DF0A42EFEE5F039CD8AF054
:1000EE00A42FFFE5F03EFEE43DFD33D0E0FB5007CC
:1000FE000BBB000F0201C8EC2CFCEF33FFEE33FEFE
:06010E00ED33FD0201A02B
:1001140075F020800E75F010800575F0087D007E66
:10012400007F003392D530D50312030FEC33401017
:10013400EF33FFEE33FEED33FDEC33FCD5F0ED226F
:0E014400E5F0247EA2D513CC92E7CDCEFF22AB
:10015200EDD2E7CD33EC3392D524814006E4FFFEA5
:10016200FDFC22FCE4CFCECDCC24E0501174FF8004
:10017200EDC3CC13CCCD13CDCE13CECF13CF0470A1
:07018200F030D5DE02030F8F
:10018900E9D2E7C933E833F892D5EDD2E7CD33ECBC
:0701990033FC5002B2D52235
:1001A000EC30E7100FBF000C0EBE00080DBD0004C0
:1001B0000BEB6014A2D5EB13FCED92E7FD2274FF6C
:1001C000FCFDFEFF22E480F8A2D574FF13FC7D80C5
:0301D000E480EFD9
:03000000020608ED
:0C060800787FE4F6D8FD75812002064FD3
:1001D300BB010689828A83E0225002E722BBFE022A
:0901E300E32289828A83E493225D
:1001EC00BC000BBE0029EF8DF084FFADF022E4CCF7
:1001FC00F875F008EF2FFFEE33FEEC33FCEE9DECC0
:10020C00984005FCEE9DFE0FD5F0E9E4CEFD22ED05
:10021C00F8F5F0EE8420D21CFEADF075F008EF2F4F
:10022C00FFED33FD4007985006D5F0F222C398FD40
:05023C000FD5F0EA22DD
:1002410075F008758200EF2FFFEE33FECD33CDCC74
:1002510033CCC58233C5829BED9AEC99E5829840F7
:100261000CF582EE9BFEED9AFDEC99FC0FD5F0D6D4
:10027100E4CEFBE4CDFAE4CCF9A88222B800C1B9FE
:100281000059BA002DEC8BF084CFCECDFCE5F0CB3C
:10029100F97818EF2FFFEE33FEED33FDEC33FCEB75
:1002A10033FB10D703994004EB99FB0FD8E5E4F930
:1002B100FA227818EF2FFFEE33FEED33FDEC33FC1D
:1002C100C933C910D7059BE99A4007EC9BFCE99A11
:1002D100F90FD8E0E4C9FAE4CCFB2275F010EF2F56
:1002E100FFEE33FEED33FDCC33CCC833C810D70756
:1002F1009BEC9AE899400AED9BFDEC9AFCE899F891
:0E0301000FD5F0DAE4CDFBE4CCFAE4C8F92223
:0E030F00C3E49FFFE49EFEE49DFDE49CFC22FF
:0C031D00ECF208EDF208EEF208EFF2221C
:10032900D083D082E493F208740193F208740293A3
:09033900F208740393F2740473DA
:10061400020342E493A3F8E493A34003F68001F2B7
:1006240008DFF48029E493A3F85407240CC8C333E7
:10063400C4540F4420C8834004F456800146F6DFB6
:10064400E4800B0102040810204080900715E47E2A
:10065400019360BCA3FF543F30E509541FFEE493AB
:10066400A360010ECF54C025E060A840B8E493A372
:10067400FAE493A3F8E493A3C8C582C8CAC583CA9D
:10068400F0A3C8C582C8CAC583CADFE9DEE780BE55
:01076D00008B
:00000001FF
