:1006E90054656D706572617475726500436F6E74DF
:1006F900726F6C00503A20202E200056313A202E7D
:0B07090020560056323A202E205600E9
:10080200040E00000000020C000002080000020AB0
:020812000000E4
:10084200758901D2AFD28CD2A9758C3C758AB0223F
:1007CB00D3EF9400EE940040147D717C00ED1D700E
:0D07DB00011CED4C70F7EF1F70E61E80E36F
:0107E80022EE
:100405007FC01208521207651208427BFF7A0679EF
:10041500E9E4FD7F021208307BFF7A0679F57D015C
:100425007F041208307F887E131207CBC200751C2B
:1004350001120791C2B77D327F0312065975080074
:100445008F097D327F04120659750A008F0BAC089F
:10045500AD09E41201B9C004C005C006C007AC0A65
:10046500AD0BEC1201B9A804A905AA06AB07D00784
:10047500D006D005D004120117E4FBFA79207841A3
:1004850012000E8F158E148D138C12AE08AF097CD9
:10049500007D3212028C7DFF12029E8E088F09AEFE
:1004A5000AAF0B7C007D3212028C7DFF1202F38EA7
:1004B5000A8F0BAF15AE14AD13AC121201F2AB07D8
:1004C500AA067C007D6412029EEF2430F50E7C00A6
:1004D5007D64AF03AE0212029EAA04AB057D0A7CC1
:1004E50000AF03AE0212029EEF2430F50F7D0A7CA9
:1004F50000AF03AE0212029EED2430F5107BFF7AA9
:100505000679FDE4FD7F0A1208307B007A00790E3A
:10051500E4FD7F0C1207E97B007A00790FE4FD7F8B
:100525000D1207E97B007A007910E4FD7F0F1207B1
:10053500E9AE08AF097C007D0A12029EEF2430F572
:100545000EAE08AF097C007D0A12029EED2430F53F
:100555000F7BFF7A077904E4FDFF1208307B007AF0
:1005650000790EE4FD7F031207E97B007A00790F1D
:10057500E4FD7F051207E9AE0AAF0B7C007D0A1288
:1005850002F3EF2430F50EAE0AAF0B7C007D0A12A4
:1005950002F3ED2430F50F7BFF7A07790C7D01E43A
:1005A500FF1208307B007A00790E7D017F03120768
:1005B500E97B007A00790F7D017F051207E97F88C5
:0805C5007E131207CB02043B78
:03000B000206A545
:1006A500C0E0C0D0758C3C758AB0050DE50D7002B3
:1006B500050CD3945AE50C94005004C2B78020C3AE
:1006C500E50D945AE50C9400400FD3E50D9464E5CF
:1006D5000C94005004D2B78006750C00750D00D03F
:0406E500D0D0E0325F
:08078900C200E5194480F51CD3
:10079100851C80A2009290C291C2927F027E0012BB
:0B07A10007ACD2927F027E000207AC82
:0A086200C200EF4408F51C020791E4
:0A086C00C200EF4404F51C020791DE
:10076500C292C200751C38120791C200751C38125E
:1007750007917F04120862C200751C011207917F60
:040785000202086CF8
:100714008F198D1AE51A7006120789120789E51ACE
:10072400B40116C200E51944C0F51C120791C200B9
:0A073400E51944C0F51C12079122DC
:10073E008B198A1A891BAB19AA1AA91B120273FFED
:10074E006014D200F51C1207917401251BF51BE4F1
:07075E00351AF51A80E022B4
:100830008B168A178918120714AB16AA17A9180263
:02084000073E71
:1007E9008B168A178918120714D200AB16AA17A9F3
:0907F90018120273F51C020791AD
:1007AC00D3EF9400EE94004015E4FDFC0DBD000168
:0E07BC000CBC04F8BD65F5EF1F70E51E80E271
:0107CA00220C
:04081400021D0000C1
:10085200EF4291859292E4F5BDF5A20000000022DC
:100819007401A807088002C333D8FCF59DEF44E8AA
:07082900F5BC0000000022F5
:04065900AB05AA073C
:10065D00E4F9F519F518F517F516E9C39B5029AF0F
:10066D0002120819E5BC30E4FB75BC00AFBDEF25E7
:10067D0019F519E43518F518E43517F517E435169D
:10068D00F516E4F5BD0980D2E4FAF9F8AF19AE1804
:07069D00AD17AC1612036556
:0106A4002233
:10000E00EC4D6011E8497017ED33EC3304600DE4EC
:10001E00FCFFFEFD22E933E8330470F802025E12A3
:10002E00022958046009E4CC2481500628500902A4
:10003E000268284003020265C0E0EB4A7044B980B2
:10004E0006D0E0FB020254EF4E701CBD8008EBFFA1
:10005E00EAFEE9FD80EBE98DF0A4FEE5F00200F783
:10006E00E9CDF9EAFEEBFFEF89F0A4FCE5F0CE89CD
:10007E00F0A42EFFE435F0CD89F0A42DFEE435F08A
:10008E008067EF4E7005BD80D780C3EF8BF0A4ACB8
:10009E00F0EE8BF0A42CFCE435F0F8EF8AF0A42CF3
:1000AE00E5F038FCE433CB8DF0A42CFCE5F03BF806
:1000BE00EE8AF0A42CFCE5F038F8E433CF89F0A4F6
:1000CE002CFCE5F038CF3400CE89F0A42FFFE5F0FC
:1000DE003EFEE433C98DF0A42EFEE5F039CD8AF054
:1000EE00A42FFFE5F03EFEE43DFD33D0E0FB5007CC
:1000FE000BBB000F020268EC2CFCEF33FFEE33FE5D
:06010E00ED33FD0202408A
:10011400020268EC5D046005E85904700302025EA3
:10012400120229580460F6EC4860F2EC7004FDFEFB
:10013400FF22C860DB2481C85009C39860025006BE
:100144000202659850CAF582E9294B4A7005AB82D0
:1001540002025475F0007C1A7880C3EF9BEE9AED8E
:1001640099400DC3EF9BFFEE9AFEED99FDE842F036
:10017400DC23ACF0D0E0FFD0E0FED0E0FDAB822089
:10018400E7101BEB60BAEC2CFCEF33FFEE33FEED13
:1001940033FD020240E803F830E705C0F075F000D3
:1001A400EF2FFFEE33FEED33FD40B830E7C280AAF7
:1001B40075F020800E75F010800575F0087D007EC6
:1001C400007F003392D530D5031203F7EC3340108F
:1001D400EF33FFEE33FEED33FDEC33FCD5F0ED22CF
:0E01E400E5F0247EA2D513CC92E7CDCEFF220B
:1001F200EDD2E7CD33EC3392D524814006E4FFFE05
:10020200FDFC22FCE4CFCECDCC24E0501174FF8063
:10021200EDC3CC13CCCD13CDCE13CECF13CF047000
:07022200F030D5DE0203F706
:10022900E9D2E7C933E833F892D5EDD2E7CD33EC1B
:0702390033FC5002B2D52294
:10024000EC30E7100FBF000C0EBE00080DBD00041F
:100250000BEB6014A2D5EB13FCED92E7FD2274FFCB
:10026000FCFDFEFF22E480F8A2D574FF13FC7D8024
:03027000E480EF38
:030000000205CD29
:0C05CD00787FE4F6D8FD7581200206144A
:10027300BB010689828A83E0225002E722BBFE0289
:09028300E32289828A83E49322BC
:10028C00EF8DF0A4A8F0CF8CF0A428CE8DF0A42E86
:02029C00FE2240
:10029E00BC000BBE0029EF8DF084FFADF022E4CC44
:1002AE00F875F008EF2FFFEE33FEEC33FCEE9DEC0D
:1002BE00984005FCEE9DFE0FD5F0E9E4CEFD22ED53
:1002CE00F8F5F0EE8420D21CFEADF075F008EF2F9D
:1002DE00FFED33FD4007985006D5F0F222C398FD8E
:0502EE000FD5F0EA222B
:1002F300C2D5EC30E709B2D5E4C39DFDE49CFCEE26
:1003030030E715B2D5E4C39FFFE49EFE12029EC3FD
:10031300E49DFDE49CFC800312029E30D507C3E4F8
:060323009FFFE49EFE2294
:1003290075F008758200EF2FFFEE33FECD33CDCC8B
:1003390033CCC58233C5829BED9AEC99E58298400E
:100349000CF582EE9BFEED9AFDEC99FC0FD5F0D6EB
:10035900E4CEFBE4CDFAE4CCF9A88222B800C1B915
:100369000059BA002DEC8BF084CFCECDFCE5F0CB53
:10037900F97818EF2FFFEE33FEED33FDEC33FCEB8C
:1003890033FB10D703994004EB99FB0FD8E5E4F947
:10039900FA227818EF2FFFEE33FEED33FDEC33FC34
:1003A900C933C910D7059BE99A4007EC9BFCE99A28
:1003B900F90FD8E0E4C9FAE4CCFB2275F010EF2F6D
:1003C900FFEE33FEED33FDCC33CCC833C810D7076D
:1003D9009BEC9AE899400AED9BFDEC9AFCE899F8A8
:0E03E9000FD5F0DAE4CDFBE4CCFAE4C8F9223B
:0E03F700C3E49FFFE49EFEE49DFDE49CFC2217
:1005D900020405E493A3F8E493A34003F68001F22F
:1005E90008DFF48029E493A3F85407240CC8C33323
:1005F900C4540F4420C8834004F456800146F6DFF2
:10060900E4800B0102040810204080900802E47E77
:10061900019360BCA3FF543F30E509541FFEE493E6
:10062900A360010ECF54C025E060A840B8E493A3AD
:10063900FAE493A3F8E493A3C8C582C8CAC583CAD8
:10064900F0A3C8C582C8CAC583CADFE9DEE780BE90
:0108180000DF
:00000001FF
